:020000040000FA
:04100000E3EF17F013
:08100800056ED8CF06F0E0CF21
:1010100007F00001E9CF0DF0EACF08F0E1CF09F0C9
:10102000E2CF0AF0D9CF0BF0DACF0CF0F3CF14F007
:10103000F4CF15F0FACF16F000C00FF001C010F099
:1010400002C011F003C012F004C013F09DAA2CEFEF
:1010500008F09EBA3BEF09F00FC000F010C001F09D
:1010600011C002F012C003F013C004F00DC0E9FF7C
:1010700008C0EAFF088E09C0E1FF0AC0E2FF0BC00A
:10108000D9FF0CC0DAFF14C0F3FF15C0F4FF16C07F
:10109000FAFF055007C0E0FF06C0D8FF1000F2CFEE
:1010A0000EF0F29EF76AB80FF66E100EF7220900E6
:1010B000F5500EBEF28E120090A8A8A05E625C628F
:1010C00040646060409E961A1486DEDCE8CADCE864
:1010D0005AA8F2E0CA7440E8CAF0E85ED0E8DAD86C
:1010E0001A141A1478C6CADCE8CAE47C78D2CCE4B4
:1010F000C2DACA40E6E4C67A44D0E8E8E0E6745EC4
:101100005EC8DEC6E65CCEDEDECED8CA5CC6DEDAFF
:101110005EE6E0E4CAC2C8E6D0CACAE85ECCDEE455
:10112000DAA4CAE6E0DEDCE6CA7ECCDEE4DAD6CAC1
:10113000F27AC888B4EEACD8A468A48E6AE6A8AEE9
:101140006A9CCAD8DE64A4D89CA0AC8AA264B2DA35
:10115000C66C9AA24CD2CCE24A64604CCADCE8E489
:10116000F25C605CE6D2DCCED8CA7A00F2CF0EF038
:10117000F29EF76A860FF66E110EF7220900F550FF
:101180000EBEF28E12004CCADCE8E4F25C625CE651
:10119000D2DCCED8CA7A0000F2CF0EF0F29EF76A07
:1011A000B20FF66E110EF7220900F5500EBEF28E48
:1011B00012004CE6EAC4DAD2E87AA6EAC4DAD2E847
:1011C000447C785ED2CCE4C2DACA7C7890627C94AB
:1011D000DED2DC40E8D2DCF2EAE4D85CC6DEDA5EDD
:1011E000A6C2DCAAA684785E90627C78A07C785E39
:1011F00090627C82C6C6CAE6E64078C240D0E4CAA5
:10120000CC7A44D0E8E8E0E6745E5EC8DEC6E65C10
:10121000CEDEDECED8CA5CC6DEDA5EE6E0E4CAC266
:10122000C8E6D0CACAE85EC6C6C67ED6CAF27A602A
:1012300082E06666649E82D0DC9ACA64C888B4EE96
:10124000ACD8A468A48E6AE6A8AE6A9CCAD8DE644C
:10125000A4D89CA0AC8AA264B2DAC6447C98DECE44
:10126000E6785EC27C785EA07C785EC6CADCE8CA9E
:10127000E47C1A140000036A7C513C0FE96E000EF6
:101280000320EA6EAECFEFFF7CC07DF0036A7C5195
:101290003C0FE96E000E0320EA6EEF50430A0BE0AC
:1012A0000A0A0BE0080A0BE0120A0BE0790A0BE0CD
:1012B000730A0BE00ED03B800CD03B820AD03B80FF
:1012C00008D03B8006D03B8004D07C6B590E3C6E2E
:1012D00000D03C50590825E17C2D23D03C502008FB
:1012E00002E0000E00D0AE504C0A09E0080A0BE004
:1012F000140A0CE0040A0DE00D0A0FE012D0939ED0
:101300008A8E3B840ED0939E8A9E0BD0939E8A8EAB
:1013100008D0939E8A7E3B8404D07C6B590E3C6E31
:1013200000D03D504F0805E13E504E0802E1939E2B
:101330008A8E3D504F0808E13E50460805E13F5077
:10134000460802E1939E8A9E7C2B7C513F08D8A0E0
:101350007C6B9E9A2CEF08F0006A016A026A036AAD
:101360000101526B536B546B556B515150114F111E
:101370004E112CE0200E566FD8904A374B374C3721
:101380004D3752375337543755375151555D08E172
:101390005051545D05E14F51535D02E14E51525D94
:1013A0000FE34E51525F4F51D8A04F3D535F505104
:1013B000D8A0503D545F5151D8A0513D555FD880C1
:1013C0000036013602360336562FD6D7010EEA6EA6
:1013D000520EE96E000104EF0AF0BF0E946E240E67
:1013E000AC6E900EAB6E080EB86E01014D6BB70E71
:1013F0004C6F1B0E4B6F4A6B516B506B47C14FF1DB
:1014000046C14EF10001A8D7010E0101005C486FF2
:10141000000E0158496F4951B06E48C1AFFFD890D6
:1014200019301A02F350030F1B6EF2CF4AF1F29EED
:101430001BC0A9FFA69CA69EA680A8504ABFF28EFC
:10144000186E000141EF18F0010EEA6E480EE96EC9
:10145000EF500EE00F0E016E006A002EFED7012E37
:10146000FBD78F0E006E002EFED70000EF2EF2D7B6
:10147000000CACA2FED7000EB8B6010E016E010141
:101480004CC100F0015204E0D8900032012EFCD78C
:1014900000501824AD6E0001000CACA2FED7010173
:1014A0004F511824AD6E0001000C110E0101466F62
:1014B000020EB06E700EAF6E080E476FFA0E486FD8
:1014C0000001C2DF0101472FF9D7380E4625476FCB
:1014D00047C14CF10001CDDF480E01014C6F000106
:1014E000C8DF480E01014C6F0001C3DF939E8A7E66
:1014F000020E0101476FFA0E486F0001A5DF0101DE
:10150000472FF9D7939E8A7E3BB021D0040EB06E50
:10151000E10EAF6E100E476FFA0E486F000194DFB8
:101520000101472FF9D7380E4625476F4C6F000150
:10153000A0DF480E01014C6F00019BDF480E010146
:101540004C6F000196DF939E8A7E0101DDD73B90B0
:101550004607BD0E4625476F4C6F00018ADFC20E5D
:1015600001014C6F000185DFC60E01014C6F0001C7
:1015700080DFE80E01014C6F00017BDFDE0E010110
:101580004C6F000176DFE40E01014C6F000171DF4A
:10159000F20E01014C6F00016CDF400E01014C6F37
:1015A000000167DFA40E01014C6F000162DF1A0E1B
:1015B00001014C6F00015DDF040E0101476FFA0E5F
:1015C000486F000141DF0101472FF9D7939E8A7EC2
:1015D0003BB040D0080E476FFA0E486F000134DF71
:1015E0000101472FF9D7BD0E4625476F4C6F00010B
:1015F00040DFC20E01014C6F00013BDFC60E01014E
:101600004C6F000136DFE80E01014C6F000131DF45
:10161000DE0E01014C6F00012CDFE40E01014C6F66
:10162000000127DFF20E01014C6F000122DF400EA6
:1016300001014C6F00011DDFA40E01014C6F000180
:1016400018DF1A0E01014C6F000113DF939E8A7E92
:101650000101BED73B904607D80E4625476F4C6F19
:10166000000107DFCA0E01014C6F000102DFE80E26
:1016700001014C6F0001FDDE400E01014C6F0001C5
:10168000F8DED20E01014C6F0001F3DE400E0101C5
:101690004C6F0001EEDEC20E01014C6F0001E9DE6D
:1016A000200E01014F6F0001F8DE2DC04FF1F5DE75
:1016B0002EC04FF1F2DE2FC04FF1EFDE30C04FF100
:1016C000ECDE31C04FF1E9DE32C04FF1E6DE33C06F
:1016D0004FF1E3DE34C04FF1E0DE35C04FF1DDDE27
:1016E00036C04FF1DADE37C04FF1D7DE38C04FF1E8
:1016F000D4DE39C04FF1D1DE3AC04FF1CEDE1A0E42
:1017000001014C6F0001B5DE040E0101476FFA0EB6
:10171000486F000199DE0101472FF9D7939E8A7E19
:101720003BB065D0080E476FFA0E486F00018CDEA3
:101730000101472FF9D7D80E4625476F4C6F00019E
:1017400098DECA0E01014C6F000193DEE80E010124
:101750004C6F00018EDE400E01014C6F000189DEEE
:10176000D20E01014C6F000184DE400E01014C6F6E
:1017700000017FDEC20E01014C6F00017ADE200EF7
:1017800001014F6F000189DE2DC04FF186DE2EC0B2
:101790004FF183DE2FC04FF180DE30C04FF17DDE90
:1017A00031C04FF17ADE32C04FF177DE33C04FF1F6
:1017B00074DE34C04FF171DE35C04FF16EDE36C0DD
:1017C0004FF16BDE37C04FF168DE38C04FF165DE98
:1017D00039C04FF162DE3AC04FF15FDE1A0E0101EF
:1017E0004C6F000146DE939E8A7E010199D73B90A3
:1017F0004607D90E4625476F4C6F00013ADECA0EE8
:1018000001014C6F000135DEE80E01014C6F000153
:1018100030DE400E01014C6F00012BDED20E0101C3
:101820004C6F000126DE400E01014C6F000121DEED
:10183000CE0E01014C6F00011CDE400E01014C6F09
:10184000000117DE2DC04FF128DE2EC04FF125DE3E
:101850002FC04FF122DE30C04FF11FDE31C04FF1FB
:101860001CDE32C04FF119DE33C04FF116DE34C03A
:101870004FF113DE35C04FF110DE35502E0804E174
:1018800036C04FF10ADE28D036502E0807E136C0A8
:101890004FF103DE37C04FF100DE1ED037502E0867
:1018A0000AE136C04FF1F9DD37C04FF1F6DD38C03F
:1018B0004FF1F3DD11D038502E080EE136C04FF154
:1018C000ECDD37C04FF1E9DD38C04FF1E6DD310E18
:1018D00001014F6F0001E1DD1A0E01014C6F0001A3
:1018E000C8DD040E0101476FFA0E486F0001ACDD40
:1018F0000101472FF9D7939E8A7E3BB085D0080E11
:10190000476FFA0E486F00019FDD0101472FF9D79D
:10191000D90E4625476F4C6F0001ABDDCA0E0101A1
:101920004C6F0001A6DDE80E01014C6F0001A1DD46
:10193000400E01014C6F00019CDDD20E01014C6F85
:10194000000197DD400E01014C6F000192DDCE0ECB
:1019500001014C6F00018DDD400E01014C6F000153
:1019600088DD2DC04FF199DD2EC04FF196DD2FC0DF
:101970004FF193DD30C04FF190DD31C04FF18DDD7F
:1019800032C04FF18ADD33C04FF187DD34C04FF1F3
:1019900084DD35C04FF181DD35502E0804E136C0BD
:1019A0004FF17BDD28D036502E0807E136C04FF1CD
:1019B00074DD37C04FF171DD1ED037502E080AE1BB
:1019C00036C04FF16ADD37C04FF167DD38C04FF1E7
:1019D00064DD11D038502E080EE136C04FF15DDDC8
:1019E00037C04FF15ADD38C04FF157DD310E0101DC
:1019F0004F6F000152DD1A0E01014C6F000139DDFD
:101A0000939E8A7E010179D73B904607DA0E4625E0
:101A1000476F4C6F00012DDDCA0E01014C6F0001B4
:101A200028DDE80E01014C6F000123DD400E0101AD
:101A30004C6F00011EDDD20E01014C6F000119DD5B
:101A4000400E01014C6F000114DDC80E01014C6F06
:101A500000010FDD400E01014C6F00010ADD600E38
:101A600001014C6F000105DD1A0E01014C6F0001F0
:101A700000DD020E0101476FFA0E486F0001E4DC41
:101A80000101472FF9D7939E8A7E3BB040D0040EC8
:101A9000476FFA0E486F0001D7DC0101472FF9D7D5
:101AA000DA0E4625476F4C6F0001E3DCCA0E0101D8
:101AB0004C6F0001DEDCE80E01014C6F0001D9DC47
:101AC000400E01014C6F0001D4DCD20E01014C6FBD
:101AD0000001CFDC400E01014C6F0001CADCC80ED2
:101AE00001014C6F0001C5DC400E01014C6F00018B
:101AF000C0DC600E01014C6F0001BBDC1A0E01015D
:101B00004C6F0001B6DC939E8A7E0101BED73B90EC
:101B10004607DB0E4625476F4C6F0001AADCCA0E54
:101B200001014C6F0001A5DCE80E01014C6F0001C2
:101B3000A0DC400E01014C6F00019BDCEA0E0101AC
:101B40004C6F000196DC400E01014C6F000191DCEE
:101B5000C40E01014C6F00018CDC400E01014C6F82
:101B6000000187DC620E01014C6F000182DC720E05
:101B700001014C6F00017DDC640E01014C6F00011E
:101B800078DC600E01014C6F000173DC600E010116
:101B90004C6F00016EDC1A0E01014C6F000169DC14
:101BA000939E8A7E040E0101476FFA0E486F000172
:101BB0004BDC0101472FF9D7939E8A7EDB0E462529
:101BC000476F4C6F000155DCCA0E01014C6F0001DC
:101BD00050DCE80E01014C6F00014BDC400E0101AE
:101BE0004C6F000146DCD20E01014C6F000141DC5C
:101BF000E00E01014C6F00013CDC400E01014C6F16
:101C0000000137DCE00E01014C6F000132DCE40E14
:101C100001014C6F00012DDCDE0E01014C6F000153
:101C200028DCE80E01014C6F000123DCDE0E01010F
:101C30004C6F00011EDC400E01014C6F000119DCED
:101C4000620E01014C6F000114DC700E01014C6F3B
:101C500000010FDC1A0E01014C6F00010ADC040EBA
:101C60000101476FFA0E486F000124EC0AF00101F0
:101C7000472FF8D7939E8A7EDB0E4625476F4C6F21
:101C8000000139EC0AF0CA0E01014C6F000139EC79
:101C90000AF0E80E01014C6F000139EC0AF0400E29
:101CA00001014C6F000139EC0AF0DE0E01014C6FAE
:101CB000000139EC0AF0400E01014C6F000139ECD3
:101CC0000AF0C80E01014C6F000139EC0AF0400E19
:101CD00001014C6F000139EC0AF0A60E01014C6FB6
:101CE000000139EC0AF0C20E01014C6F000139EC21
:101CF0000AF0DC0E01014C6F000139EC0AF0AA0E6B
:101D000001014C6F000139EC0AF0A60E01014C6F85
:101D1000000139EC0AF0840E01014C6F000139EC2E
:101D20000AF05A0E01014C6F000139EC0AF0CC0E9A
:101D300001014C6F000139EC0AF0D80E01014C6F23
:101D4000000139EC0AF0F20E01014C6F000139EC90
:101D50000AF01A0E01014C6F000139EC0AF0020E74
:101D60000101476FFA0E486F000124EC0AF00101EF
:101D7000472FF8D7939E8A7EDB0E4625476F4C6F20
:101D8000000139EC0AF0C20E01014C6F000139EC80
:101D90000AF0EC0E01014C6F000139EC0AF0CA0E9A
:101DA00001014C6F000139EC0AF01A0E01014C6F71
:101DB000000139EC0AF0040E0101476FFA0E486F7A
:101DC000000124EC0AF00101472FF8D7939E8A7E88
:101DD0003BB037D0080E476FFA0E486F000124EC75
:101DE0000AF00101472FF8D7DB0E4625476F4C6FED
:101DF000000139EC0AF0C20E01014C6F000139EC10
:101E00000AF0EC0E01014C6F000139EC0AF0CA0E29
:101E100001014C6F000139EC0AF01A0E01014C6F00
:101E2000000139EC0AF0040E0101476FFA0E486F09
:101E3000000124EC0AF00101472FF8D7939E8A7E17
:101E4000C7D73B904607DA0E4625476F4C6F000117
:101E500039EC0AF0CA0E01014C6F000139EC0AF0AE
:101E6000C40E01014C6F000139EC0AF0DE0E0101D5
:101E70004C6F000139EC0AF0DE0E01014C6F0001DD
:101E800039EC0AF0E80E01014C6F000139EC0AF060
:101E90001A0E01014C6F000139EC0AF0040E010129
:101EA000476FFA0E486F000124EC0AF00101472F3A
:101EB000F8D7939E8A7E3BB00DD0100E476FFA0E76
:101EC000486F000124EC0AF00101472FF8D7939ED8
:101ED0008A7EF1D7DA0E4625476F4C6F000139EC48
:101EE0000AF0CA0E01014C6F000139EC0AF0C40E71
:101EF00001014C6F000139EC0AF0DE0E01014C6F5C
:101F0000000139EC0AF0DE0E01014C6F000139ECE2
:101F10000AF0E80E01014C6F000139EC0AF01A0ECC
:101F200001014C6F000139EC0AF03B9001014607BA
:101F3000020EB06E700EAF6E640E486F000124EC9E
:101F40000AF03F0E01014625476F47C14CF10001E1
:101F500039EC0AF0480E01014C6F000139EC0AF02F
:101F6000480E01014C6F000139EC0AF0939E8A7E05
:101F7000020E0101476FFA0E486F000124EC0AF0CF
:101F80000101472FF8D7939E8A7E3BB02BD0100ECD
:101F9000476FFA0E486F000124EC0AF00101472F49
:101FA000F8D73F0E4625476F4C6F000139EC0AF019
:101FB000480E01014C6F000139EC0AF0480E010196
:101FC0004C6F000139EC0AF0939E8A7E020E0101EB
:101FD000476FFA0E486F000124EC0AF00101472F09
:101FE000F8D7D3D73B904607DE0E4625476F4C6F98
:101FF000000139EC0AF0CA0E01014C6F000139EC06
:102000000AF0E80E01014C6F000139EC0AF0400EB5
:1020100001014C6F000139EC0AF0EE0E01014C6F2A
:10202000000139EC0AF0400E01014C6F000139EC5F
:102030000AF0E60E01014C6F000139EC0AF0400E87
:1020400001014C6F000139EC0AF01DC04FF14DEC5D
:102050000AF01EC04FF14DEC0AF01FC04FF14DECDD
:102060000AF020C04FF14DEC0AF021C04FF14DECC9
:102070000AF022C04FF14DEC0AF023C04FF14DECB5
:102080000AF024C04FF14DEC0AF025C04FF14DECA1
:102090000AF026C04FF14DEC0AF027C04FF14DEC8D
:1020A0000AF028C04FF14DEC0AF029C04FF14DEC79
:1020B0000AF02AC04FF14DEC0AF02BC04FF14DEC65
:1020C0000AF02CC04FF14DEC0AF02DC04FF14DEC51
:1020D0000AF01A0E01014C6F000139EC0AF0020EF1
:1020E0000101476FFA0E486F000124EC0AF001016C
:1020F000472FF8D7939E8A7E3BB093D0080E476F48
:10210000FA0E486F000124EC0AF00101472FF8D7BE
:10211000DE0E4625476F4C6F000139EC0AF0CA0EFF
:1021200001014C6F000139EC0AF0E80E01014C6F1F
:10213000000139EC0AF0400E01014C6F000139EC4E
:102140000AF0EE0E01014C6F000139EC0AF0400E6E
:1021500001014C6F000139EC0AF0E60E01014C6FF1
:10216000000139EC0AF0400E01014C6F000139EC1E
:102170000AF01DC04FF14DEC0AF01EC04FF14DECBE
:102180000AF01FC04FF14DEC0AF020C04FF14DECAA
:102190000AF021C04FF14DEC0AF022C04FF14DEC96
:1021A0000AF023C04FF14DEC0AF024C04FF14DEC82
:1021B0000AF025C04FF14DEC0AF026C04FF14DEC6E
:1021C0000AF027C04FF14DEC0AF028C04FF14DEC5A
:1021D0000AF029C04FF14DEC0AF02AC04FF14DEC46
:1021E0000AF02BC04FF14DEC0AF02CC04FF14DEC32
:1021F0000AF02DC04FF14DEC0AF01A0E01014C6FA0
:10220000000139EC0AF0020E0101476FFA0E486F27
:10221000000124EC0AF00101472FF8D7939E8A7E33
:102220006BD73B904607DF0E4625476F4C6F00018A
:1022300039EC0AF0CA0E01014C6F000139EC0AF0CA
:10224000E80E01014C6F000139EC0AF0400E01016B
:102250004C6F000139EC0AF0EE0E01014C6F0001E9
:1022600039EC0AF0400E01014C6F000139EC0AF024
:10227000E00E01014C6F000139EC0AF0400E010143
:102280004C6F000139EC0AF024C04FF14DEC0AF01C
:1022900025C04FF14DEC0AF026C04FF14DEC0AF08D
:1022A00027C04FF14DEC0AF028C04FF14DEC0AF079
:1022B00029C04FF14DEC0AF02AC04FF14DEC0AF065
:1022C0002BC04FF14DEC0AF02CC04FF14DEC0AF051
:1022D0002DC04FF14DEC0AF02EC04FF14DEC0AF03D
:1022E0002FC04FF14DEC0AF030C04FF14DEC0AF029
:1022F00031C04FF14DEC0AF032C04FF14DEC0AF015
:1023000033C04FF14DEC0AF034C04FF14DEC0AF000
:102310001A0E01014C6F000139EC0AF0020E0101A6
:10232000476FFA0E486F000124EC0AF00101472FB5
:10233000F8D7939E8A7E3BB093D0080E476FFA0E73
:10234000486F000124EC0AF00101472FF8D7DF0E97
:102350004625476F4C6F000139EC0AF0CA0E0101A7
:102360004C6F000139EC0AF0E80E01014C6F0001DE
:1023700039EC0AF0400E01014C6F000139EC0AF013
:10238000EE0E01014C6F000139EC0AF0400E010124
:102390004C6F000139EC0AF0E00E01014C6F0001B6
:1023A00039EC0AF0400E01014C6F000139EC0AF0E3
:1023B00024C04FF14DEC0AF025C04FF14DEC0AF06E
:1023C00026C04FF14DEC0AF027C04FF14DEC0AF05A
:1023D00028C04FF14DEC0AF029C04FF14DEC0AF046
:1023E0002AC04FF14DEC0AF02BC04FF14DEC0AF032
:1023F0002CC04FF14DEC0AF02DC04FF14DEC0AF01E
:102400002EC04FF14DEC0AF02FC04FF14DEC0AF009
:1024100030C04FF14DEC0AF031C04FF14DEC0AF0F5
:1024200032C04FF14DEC0AF033C04FF14DEC0AF0E1
:1024300034C04FF14DEC0AF01A0E01014C6F00014F
:1024400039EC0AF0020E0101476FFA0E486F0001E5
:1024500024EC0AF00101472FF8D7939E8A7E6BD7B0
:102460003B904607E00E4625476F4C6F000139EC64
:102470000AF0CA0E01014C6F000139EC0AF0E80EB7
:1024800001014C6F000139EC0AF0400E01014C6F64
:10249000000139EC0AF0C60E01014C6F000139EC65
:1024A0000AF0DE0E01014C6F000139EC0AF0DA0E81
:1024B00001014C6F000139EC0AF0DA0E01014C6F9A
:1024C000000139EC0AF0400E01014C6F000139ECBB
:1024D0000AF0DE0E01014C6F000139EC0AF0E00E4B
:1024E00001014C6F000139EC0AF0CA0E01014C6F7A
:1024F000000139EC0AF0DC0E01014C6F000139ECEF
:102500000AF0400E01014C6F000139EC0AF0540E44
:1025100001014C6F000139EC0AF0A60E01014C6F6D
:10252000000139EC0AF0C20E01014C6F000139ECD8
:102530000AF0DC0E01014C6F000139EC0AF0AA0E22
:1025400001014C6F000139EC0AF0A60E01014C6F3D
:10255000000139EC0AF0840E01014C6F000139ECE6
:102560000AF0540E01014C6F000139EC0AF01A0E0A
:1025700001014C6F000139EC0AF0020E0101476FB6
:10258000FA0E486F000124EC0AF00101472FF8D73A
:10259000939E8A7E3BB099D0040E476FFA0E486F27
:1025A000000124EC0AF00101472FF8D7E00E462580
:1025B000476F4C6F000139EC0AF0CA0E01014C6FF5
:1025C000000139EC0AF0E80E01014C6F000139EC12
:1025D0000AF0400E01014C6F000139EC0AF0C60E02
:1025E00001014C6F000139EC0AF0DE0E01014C6F65
:1025F000000139EC0AF0DA0E01014C6F000139ECF0
:102600000AF0DA0E01014C6F000139EC0AF0400EBD
:1026100001014C6F000139EC0AF0DE0E01014C6F34
:10262000000139EC0AF0E00E01014C6F000139ECB9
:102630000AF0CA0E01014C6F000139EC0AF0DC0E01
:1026400001014C6F000139EC0AF0400E01014C6FA2
:10265000000139EC0AF0540E01014C6F000139EC15
:102660000AF0A60E01014C6F000139EC0AF0C20E0F
:1026700001014C6F000139EC0AF0DC0E01014C6FD6
:10268000000139EC0AF0AA0E01014C6F000139EC8F
:102690000AF0A60E01014C6F000139EC0AF0840E1D
:1026A00001014C6F000139EC0AF0540E01014C6F2E
:1026B000000139EC0AF01A0E01014C6F000139ECEF
:1026C0000AF0939E8A7E010165D73B904607E10E92
:1026D0004625476F4C6F000139EC0AF0CA0E010124
:1026E0004C6F000139EC0AF0E80E01014C6F00015B
:1026F00039EC0AF0400E01014C6F000139EC0AF090
:10270000C60E01014C6F000139EC0AF0DE0E01012A
:102710004C6F000139EC0AF0DA0E01014C6F000138
:1027200039EC0AF0DA0E01014C6F000139EC0AF0C5
:10273000400E01014C6F000139EC0AF0E40E01017A
:102740004C6F000139EC0AF0CA0E01014C6F000118
:1027500039EC0AF0DA0E01014C6F000139EC0AF095
:10276000DE0E01014C6F000139EC0AF0E80E0101A8
:102770004C6F000139EC0AF0CA0E01014C6F0001E8
:1027800039EC0AF0400E01014C6F000139EC0AF0FF
:102790003C0E01014C6F000139EC0AF01A0E0101E8
:1027A0004C6F000139EC0AF0939E8A7E020E010103
:1027B000476FFA0E486F000124EC0AF00101472F21
:1027C000F8D7939E8A7E3BB07BD0040E476FFA0EFB
:1027D000486F000124EC0AF00101472FF8D7E10E01
:1027E0004625476F4C6F000139EC0AF0CA0E010113
:1027F0004C6F000139EC0AF0E80E01014C6F00014A
:1028000039EC0AF0400E01014C6F000139EC0AF07E
:10281000C60E01014C6F000139EC0AF0DE0E010119
:102820004C6F000139EC0AF0DA0E01014C6F000127
:1028300039EC0AF0DA0E01014C6F000139EC0AF0B4
:10284000400E01014C6F000139EC0AF0E40E010169
:102850004C6F000139EC0AF0CA0E01014C6F000107
:1028600039EC0AF0DA0E01014C6F000139EC0AF084
:10287000DE0E01014C6F000139EC0AF0E80E010197
:102880004C6F000139EC0AF0CA0E01014C6F0001D7
:1028900039EC0AF0400E01014C6F000139EC0AF0EE
:1028A0003C0E01014C6F000139EC0AF01A0E0101D7
:1028B0004C6F000139EC0AF0939E8A7E010183D7A8
:1028C0003B904607E20E4625476F4C6F000139ECFE
:1028D0000AF0CA0E01014C6F000139EC0AF0E80E53
:1028E00001014C6F000139EC0AF0400E01014C6F00
:1028F000000139EC0AF0D20E01014C6F000139ECF5
:102900000AF0E00E01014C6F000139EC0AF0400EB4
:1029100001014C6F000139EC0AF0D80E01014C6F37
:10292000000139EC0AF0DE0E01014C6F000139ECB8
:102930000AF0C60E01014C6F000139EC0AF0C20E1C
:1029400001014C6F000139EC0AF0D80E01014C6F07
:10295000000139EC0AF0400E01014C6F000139EC26
:102960000AF0700E01014C6F000139EC0AF0600EA4
:1029700001014C6F000139EC0AF01A0E01014C6F95
:10298000000139EC0AF0020E0101476FFA0E486FA0
:10299000000124EC0AF00101472FF8D7939E8A7EAC
:1029A0003BB06FD0040E476FFA0E486F000124EC65
:1029B0000AF00101472FF8D7E20E4625476F4C6F0A
:1029C000000139EC0AF0CA0E01014C6F000139EC2C
:1029D0000AF0E80E01014C6F000139EC0AF0400EDC
:1029E00001014C6F000139EC0AF0D20E01014C6F6D
:1029F000000139EC0AF0E00E01014C6F000139ECE6
:102A00000AF0400E01014C6F000139EC0AF0D80EBB
:102A100001014C6F000139EC0AF0DE0E01014C6F30
:102A2000000139EC0AF0C60E01014C6F000139ECCF
:102A30000AF0C20E01014C6F000139EC0AF0D80E09
:102A400001014C6F000139EC0AF0400E01014C6F9E
:102A5000000139EC0AF0700E01014C6F000139ECF5
:102A60000AF0600E01014C6F000139EC0AF01A0EF9
:102A700001014C6F000139EC0AF0939E8A7E01013E
:102A80008FD73B904607E30E4625476F4C6F0001FA
:102A900039EC0AF0C20E01014C6F000139EC0AF06A
:102AA000EC0E01014C6F000139EC0AF0CA0E010175
:102AB0004C6F000139EC0AF01A0E01014C6F000155
:102AC00039EC0AF0040E0101476FFA0E486F00015D
:102AD00024EC0AF00101472FF8D7939E8A7E3BB081
:102AE00039D0080E476FFA0E486F000124EC0AF047
:102AF0000101472FF8D7E30E4625476F4C6F0001C1
:102B000039EC0AF0C20E01014C6F000139EC0AF0F9
:102B1000EC0E01014C6F000139EC0AF0CA0E010104
:102B20004C6F000139EC0AF01A0E01014C6F0001E4
:102B300039EC0AF0040E0101476FFA0E486F0001EC
:102B400024EC0AF00101472FF8D7939E8A7E939ECA
:102B50008A7EC5D73B904607D20E4625476F4C6FFD
:102B6000000139EC0AF0DE0E01014C6F000139EC76
:102B70000AF0D20E01014C6F000139EC0AF0DC0EB4
:102B800001014C6F000139EC0AF0400E01014C6F5D
:102B9000000139EC0AF01DC04FF14DEC0AF01EC0E7
:102BA0004FF14DEC0AF01FC04FF14DEC0AF020C080
:102BB0004FF14DEC0AF021C04FF14DEC0AF022C06C
:102BC0004FF14DEC0AF023C04FF14DEC0AF024C058
:102BD0004FF14DEC0AF025C04FF14DEC0AF026C044
:102BE0004FF14DEC0AF027C04FF14DEC0AF028C030
:102BF0004FF14DEC0AF029C04FF14DEC0AF02AC01C
:102C00004FF14DEC0AF02BC04FF14DEC0AF02CC007
:102C10004FF14DEC0AF02DC04FF14DEC0AF02EC0F3
:102C20004FF14DEC0AF01A0E01014C6F000139EC26
:102C30000AF0939E8A7E100E0101476FFA0E486FCC
:102C4000000124EC0AF00101472FF8D7939E8A7EF9
:102C50003BB27BD0100E476FFA0E486F000124EC98
:102C60000AF00101472FF8D7D20E4625476F4C6F67
:102C7000000139EC0AF0DE0E01014C6F000139EC65
:102C80000AF0D20E01014C6F000139EC0AF0DC0EA3
:102C900001014C6F000139EC0AF0400E01014C6F4C
:102CA000000139EC0AF01DC04FF14DEC0AF01EC0D6
:102CB0004FF14DEC0AF01FC04FF14DEC0AF020C06F
:102CC0004FF14DEC0AF021C04FF14DEC0AF022C05B
:102CD0004FF14DEC0AF023C04FF14DEC0AF024C047
:102CE0004FF14DEC0AF025C04FF14DEC0AF026C033
:102CF0004FF14DEC0AF027C04FF14DEC0AF028C01F
:102D00004FF14DEC0AF029C04FF14DEC0AF02AC00A
:102D10004FF14DEC0AF02BC04FF14DEC0AF02CC0F6
:102D20004FF14DEC0AF02DC04FF14DEC0AF02EC0E2
:102D30004FF14DEC0AF01A0E01014C6F000139EC15
:102D40000AF0939E8A7E010183D7939E8A9E3B92CE
:102D50004607000155EF18F01C6A036A1C50010178
:102D60004925E96E4A510320EA6EEF5211E0036AE9
:102D70001C504925E96E4A510320EA6EEFCF4BF112
:102D80004BC14CF1000139EC0AF01C2AE6D70101D5
:102D90000001000C016A026A006A036A01014D51D8
:102DA00002E14C5118E0100E4E6FD8904A374B3765
:102DB000003603364D51035C02E14C51005C07E3E1
:102DC0004C51005ED8A003064D51035ED8800136F9
:102DD00002364E2FEAD70001000C010147512608A8
:102DE00034E2FF0A03E146510F082FE247C14BF1DD
:102DF00046C14AF1270E4D6F100E4C6F0001CADF1D
:102E000002C049F101C048F102C04BF101C04AF1D2
:102E100001014D6B0A0E4C6F0001BCDF00C049F18F
:102E2000010103C04AF1185000244B6F000E03202B
:102E30004C6F300E4B254D6F000E4C214E6F4DC127
:102E40004FF100014DEC0AF001014751020834E254
:102E5000FF0A03E14651E7082FE247C14BF146C1A3
:102E60004AF1030E4D6FE80E4C6F000193DF02C074
:102E700049F101C048F102C04BF101C04AF1010122
:102E80004D6B0A0E4C6F000185DF00C049F1010156
:102E900003C04AF1185000244B6F000E03204C6F02
:102EA000300E4B254D6F000E4C214E6F4DC14FF132
:102EB00000014DEC0AF00101475303E1465163085C
:102EC0002EE247C14BF146C14AF14D6B640E4C6F87
:102ED000000160DF02C049F101C048F102C04BF1BE
:102EE00001C04AF101014D6B0A0E4C6F000152DF27
:102EF00000C049F1010103C04AF1185000244B6F92
:102F0000000E03204C6F300E4B254D6F000E4C21F0
:102F10004E6F4DC14FF100014DEC0AF001014753D6
:102F200003E1465109082EE247C14BF146C14AF17F
:102F30004D6B0A0E4C6F00012DDF02C049F101C03C
:102F400048F102C04BF101C04AF101014D6B0A0E7C
:102F50004C6F00011FDF00C049F1010103C04AF1BD
:102F6000185000244B6F000E03204C6F300E4B2581
:102F70004D6F000E4C214E6F4DC14FF100014DECD5
:102F80000AF0010147C14BF146C14AF14D6B0A0EEF
:102F90004C6F0001FFDE00C048F1010103C049F1A0
:102FA000185000244A6F000E03204B6F300E4A2544
:102FB0004C6F000E4B214D6F4CC14FF100014DEC99
:102FC0000AF0CBEF18F0F86AD09E088EEA6AE96A38
:102FD000C150C00B0F09C16E070EB46E0F0E186EF4
:102FE000330E196E0A0E1A6EDF0E1B6E1C6A530E1C
:102FF0001D6E610E1E6E6E0E1F6E550E206E530EF0
:10300000216E420E226E236A730E246E690E256EA7
:103010006C0E266E760E276E650E286E690E296E72
:10302000720E2A6E330E2B6E2C6A310E2D6E390EF7
:103030002E6E320E2F6E2E0E306E310E316E360E1B
:10304000326E380E336E2E0E346E310E356E2E0EFD
:10305000366E310E376E390E386E350E396E3A6A6D
:103060003B903B923B947C6B7D6B7E6B7F6B806B6C
:10307000816B250E0101476F800E466F0001EDEF59
:1030800009F0C00EF2129D8AC150C00B0D09C16E2D
:10309000C080C082C084C08EC280000E016EC2504B
:1030A000C30B0110C26E55EF0AF03BA49AD03B94BB
:1030B000C282C2B2FED7C3CF7EF0C4CF7FF0020E71
:1030C0000101466FFA0E486F000124EC0AF001017D
:1030D000462FF8D7EA6A830EE96EF2CF46F1F29EE8
:1030E000B40E016EF76A000E00014FEC08F00A0002
:1030F0000900F5CFEEFF012EFBD7010146BFF28E8E
:103100004A6B830E496F000127DE816B806B1D0EB9
:103110008025E96E000E8121EA6EEF521DE01D0E42
:103120008025E96E000E8121EA6EEFCF46F1400E58
:103130001824006E003A0032070E001600500101FC
:103140004603F3CF82F0000182C04CF139EC0AF063
:10315000802BD8B4812BDBD7EA6A830EE96EF2CFDD
:1031600046F1F29E110E016EF76A000EB6EC08F001
:103170000A000900F5CFEEFF012EFBD7010146BF83
:10318000F28E4A6B830E496F0001E6DD7FC047F186
:103190007EC046F122D6EA6A830EE96EF2CF46F18E
:1031A000F29EC30E016EF76A000ECCEC08F00A0026
:1031B0000900F5CFEEFF012EFBD7010146BFF28ECD
:1031C0004A6B830E496F0001C7DD020E0101466F95
:1031D000FA0E486F000124EC0AF00101462FF8D7DF
:0631E000000163D70300AB
:020000040030CA
:0E000000240E3E1E008381000FC00FE00F4053
:00000001FF
;PIC18F4550
;CRC=E15C  CREATED="01-ago-14 23:20"
