:020000040000FA
:060000002DEF21F01200BB
:061000002DEF21F01200AB
:06100800EDEF11F01200F3
:021018001200C4
:06102A00010094420000E9
:08103000A500000032000000E1
:08103800D9CFE6FFE1CFD9FF9B
:10104000D08EF28EFD0EDBCF08F0FE0EDBCF09F066
:10105000200E081802E19D0E091847E0400E0818FE
:1010600002E19D0E09183FE0100E081802E1F00E93
:10107000091836E0080E081802E1F00E09182DE0F4
:10108000100E081802E1F20E091824E0020E0818EA
:1010900002E1A00E09181BE0020E081802E19D0EE5
:1010A000091812E0010E081802E19D0E091809E066
:1010B000200E08181CE1F20E091819E1F28AD58EEB
:1010C00016D09D80CD8013D09D82CA8410D0A0827E
:1010D000B1800DD0F288F19C0AD0F086F19A07D049
:1010E000F088F19804D09D8C02D09D8A9F8AE552A9
:1010F000E7CFD9FF1200A7C092FF1200A7C093FF4D
:101100001200A7C094FF12009268120093681200A8
:1011100094681200D180120004001200D9CFE6FFBB
:10112000E1CFD9FFFD0EDBCF08F0FE0EDBCF09F0DB
:10113000820E081802E10F0E091801E1C3D0170E44
:10114000081802E17C0E091801E1B9D0160E081842
:1011500002E17C0E091801E1AFD0120E081802E17D
:101160007C0E091801E1A5D0110E081802E17C0ED1
:10117000091801E19BD0100E081802E17C0E091835
:1011800001E191D0810E081802E10F0E091801E16A
:1011900087D00F0E081802E17C0E091801E17DD0FE
:1011A0000E0E081802E17C0E091874E00D0E0818E6
:1011B00002E17C0E09186BE00C0E081802E17C0EAF
:1011C000091862E00B0E081802E17C0E091859E0BC
:1011D0000A0E081802E17C0E091850E0090E0818E2
:1011E00002E17C0E091847E0080E081802E17C0EA7
:1011F00009183EE0800E081802E10F0E091835E0CC
:10120000050E081802E17C0E09182CE0040E0818DF
:1012100002E17C0E091823E0030E081802E17C0E9F
:1012200009181AE0020E081802E17C0E091811E0F4
:10123000010E081802E17C0E091808E0085044E18C
:101240007C0E091841E1929080803ED0929280827B
:101250003BD09294808438D09296808635D09298F4
:10126000808832D0929A808A2FD0926A89682CD056
:101270009390818029D09392818226D09394818407
:1012800023D09396818620D0939881881DD0939AFD
:10129000818A1AD0939C818C17D0939E818E14D012
:1012A000936A8A6811D0949082800ED09492828240
:1012B0000BD09494828408D0949C828C05D0949E08
:1012C000828E02D0946A8B68E552E7CFD9FF120074
:1012D000D9CFE6FFE1CFD9FFFD0EDBCF08F0FE0E40
:1012E000DBCF09F0820E081802E10F0E091801E1A8
:1012F000C3D0170E081802E17C0E091801E1B9D01D
:10130000160E081802E17C0E091801E1AFD0120E8A
:10131000081802E17C0E091801E1A5D0110E081889
:1013200002E17C0E091801E19BD0100E081802E1C1
:101330007C0E091801E191D0810E081802E10F0E10
:10134000091801E187D00F0E081802E17C0E091878
:1013500001E17DD00E0E081802E17C0E091874E040
:101360000D0E081802E17C0E09186BE00C0E08182F
:1013700002E17C0E091862E00B0E081802E17C0EF7
:10138000091859E00A0E081802E17C0E091850E00D
:10139000090E081802E17C0E091847E0080E08182B
:1013A00002E17C0E09183EE0800E081802E10F0EE3
:1013B000091835E0050E081802E17C0E09182CE02A
:1013C000040E081802E17C0E091823E0030E081829
:1013D00002E17C0E09181AE0020E081802E17C0EE8
:1013E000091811E0010E081802E17C0E091808E046
:1013F000085044E17C0E091841E1929080903ED063
:10140000929280923BD09294809438D0929680961B
:1014100035D09298809832D0929A809A2FD0926A42
:10142000896A2CD09390819029D09392819226D072
:101430009394819423D09396819620D09398819809
:101440001DD0939A819A1AD0939C819C17D0939E19
:10145000819E14D0936A8A6A11D0949082900ED0A3
:10146000949282920BD09494829408D0949C829C03
:1014700005D0949E829E02D0946A8B6AE552E7CF93
:10148000D9FF1200D9CFE6FFE1CFD9FFFD0EDBCFA8
:1014900008F0FE0EDBCF09F01F0E081802E17C0EEB
:1014A000091801E1AFD0170E081802E17C0E0918E7
:1014B00001E1A5D0160E081802E17C0E091801E121
:1014C0009BD0120E081802E17C0E091801E191D0A0
:1014D000110E081802E17C0E091801E187D0100EE8
:1014E000081802E17C0E091801E17DD00F0E0818E2
:1014F00002E17C0E091874E00E0E081802E17C0E61
:1015000009186BE00D0E081802E17C0E091862E064
:101510000C0E081802E17C0E091859E00B0E081891
:1015200002E17C0E091850E00A0E081802E17C0E58
:10153000091847E0090E081802E17C0E09183EE080
:10154000080E081802E17C0E091835E0050E08188F
:1015500002E17C0E09182CE0040E081802E17C0E52
:10156000091823E0030E081802E17C0E09181AE09E
:10157000020E081802E17C0E091811E0010E08188D
:1015800002E17C0E091808E008503EE17C0E0918C3
:101590003BE19290807038D09292807235D09294D4
:1015A000807432D0929680762FD0929880782CD00A
:1015B000929A807A29D09390817026D093928172EA
:1015C00023D09394817420D0939681761DD09398E4
:1015D00081781AD0939A817A17D0939C817C14D009
:1015E000939E817E11D0949082700ED094928272DC
:1015F0000BD09494827408D0949C827C05D0949EE5
:10160000827E02D0959E837EE552E7CFD9FF1200FD
:10161000D9CFE6FFE1CFD9FFFD0EDBCF08F0FE0EFC
:10162000DBCF09F0170E081802E17C0E091801E162
:1016300019D1160E081802E17C0E091801E109D132
:10164000120E081802E17C0E091801E1F9D0110E02
:10165000081802E17C0E091801E1E9D0100E081803
:1016600002E17C0E091801E1D9D00F0E081802E141
:101670007C0E091801E1C9D00E0E081802E17C0E9B
:10168000091801E1B9D00D0E081802E17C0E091805
:1016900001E1A9D00C0E081802E17C0E091801E145
:1016A00099D00B0E081802E17C0E091801E189D0CF
:1016B0000A0E081802E17C0E091801E179D0090E22
:1016C000081802E17C0E09186AE0080E081802E109
:1016D0007C0E09185BE0050E081802E17C0E091863
:1016E0004CE0040E081802E17C0E09183DE0030EE0
:1016F000081802E17C0E09182EE0020E081802E11B
:101700007C0E09181FE0010E081802E17C0E091872
:1017100010E0085001E0ADD07C0E091801E0A9D01E
:101720009290FB0EDB50E8B08080E8B0A2D08090B1
:10173000A0D09292FB0EDB50E8B08082E8B099D046
:10174000809297D09294FB0EDB50E8B08084E8B092
:1017500090D080948ED09296FB0EDB50E8B08086BD
:10176000E8B087D0809685D09298FB0EDB50E8B029
:101770008088E8B07ED080987CD0929AFB0EDB50B7
:10178000E8B0808AE8B075D0809A73D09390FB0E51
:10179000DB50E8B08180E8B06CD081906AD0939241
:1017A000FB0EDB50E8B08182E8B063D0819261D05B
:1017B0009394FB0EDB50E8B08184E8B05AD081945A
:1017C00058D09396FB0EDB50E8B08186E8B051D03C
:1017D00081964FD09398FB0EDB50E8B08188E8B03B
:1017E00048D0819846D0939AFB0EDB50E8B0818AAE
:1017F000E8B03FD0819A3DD0939CFB0EDB50E8B01F
:10180000818CE8B036D0819C34D0939EFB0EDB50A7
:10181000E8B0818EE8B02DD0819E2BD09490FB0E45
:10182000DB50E8B08280E8B024D0829022D094923D
:10183000FB0EDB50E8B08282E8B01BD0829219D058
:101840009494FB0EDB50E8B08284E8B012D082940E
:1018500010D0949CFB0EDB50E8B0828CE8B009D02D
:10186000829C07D0949EFB0EDB50E8B0828EE8A0ED
:10187000829EE552E7CFD9FF1200D9CFE6FFE1CF34
:10188000D9FF020EE126DE6ADD6ADECF14F0DDCF7D
:1018900015F00C0E086E096AFD0EDBCF0DF0FE0E82
:1018A000DBCF0EF047EC20F006C016F007C017F0B3
:1018B0001650145C1750155806E20000DF2A010E7E
:1018C00001E3DB2AE2D7020EE15C02E2E16AE552C3
:1018D000E16EE552E7CFD9FF1200D9CFE6FFE1CFA5
:1018E000D9FF020EE126FC0E0001A725010FA96E0B
:1018F000A751A9240B0BA66EA850FEE1DE6ADD6A93
:10190000DECF14F0DDCF15F00C0E086E096AFD0E67
:10191000DBCF0DF0FE0EDBCF0EF047EC20F006C063
:1019200016F007C017F00650145C075015580AE26D
:10193000010EE66E0DEC21F0E552DF2A010EE0E328
:10194000DB2ADED7020EE15C02E2E16AE552E16EDB
:10195000E552E7CFD9FF1200D9CFE6FFE1CFD9FF9B
:10196000FE0EDB500001A725C16E070EA725C06E35
:10197000E552E7CFD9FF1200D9CFE6FFE1CFD9FF7B
:10198000FE0EDB500C0A24E0070A20E0010A1CE0EE
:10199000030A18E0010A14E00C0A10E0070A0CE040
:1019A000010A08E0030A04E0010A14E1010E11D063
:1019B000050E0FD0090E0DD00D0E0BD0110E09D053
:1019C000210E07D0250E05D0290E03D02D0E01D0F3
:1019D000310EC26E0A0EE66EE66A7FDFE552E55210
:1019E000C09EC282C2B2FED7C450156AF36E15C043
:1019F000F4FFE552E7CFD9FF1200D9CFE6FFE1CFE0
:101A0000D9FFFE0EDB500C0A24E0070A20E0010A91
:101A10001CE0030A18E0010A14E00C0A10E0070AAF
:101A20000CE0010A08E0030A04E0010A14E1010ED7
:101A300011D0050E0FD0090E0DD00D0E0BD0110ECA
:101A400009D0210E07D0250E05D0290E03D02D0E6A
:101A500001D0310EC26E0A0EE66EE66A3EDFE55236
:101A6000E552C08EC282C2B2FED7C3CFF3FFC4CF4D
:101A7000F4FFE552E7CFD9FF1200D9CFE6FFE1CF5F
:101A8000D9FFFE0EDB50030A67E0020A42E0010ABA
:101A900001E084D0FC0EDBCF08F0FD0EDBCF09F0B7
:101AA000020E081801E1095031E0040E081801E1A6
:101AB00009502AE0080E081801E1095023E0100E31
:101AC000081801E109501CE0200E081801E1095036
:101AD00015E0400E081801E109500EE0800E0818CC
:101AE00001E1095007E0085059E1010E091856E1DB
:101AF000870E0DD0860E0BD0850E09D0840E07D030
:101B0000830E05D0820E03D0810E01D0800ED56EDB
:101B100045D0FC0EDBCF08F0FD0EDBCF09F0010E47
:101B2000081801E1095015E0020E081801E10950FA
:101B30000EE0040E081801E1095007E0080E08182D
:101B40002DE109502BE1B10E05D0A10E03D0910E6D
:101B500001D0810ECD6E22D0FC0EDBCF08F0FD0E41
:101B6000DBCF09F0010E081801E1095015E0020E63
:101B7000081801E109500EE0040E081801E10950AF
:101B800007E0080E08180AE1095008E1B10E05D077
:101B9000A10E03D0910E01D0810EB16EE552E7CFB8
:101BA000D9FF1200D9CFE6FFE1CFD9FF060EE1261B
:101BB000176A186A010E196EFC0EDBCF1AF0FD0EC3
:101BC000DBCF1BF01C6A1A50175C146E1B501858A0
:101BD000156E1C501958166E14C0DEFF15C0DDFFBF
:101BE000146A010E156E14C00DF00E6EDECF08F0F3
:101BF000DDCF09F0F7EC20F0020E08C0DBFF030E8A
:101C000009C0DBFFDECF14F0DDCF15F0156A040E3E
:101C100014C0DBFF050E15C0DBFFFE0EDB50030A10
:101C200012E0020A09E0010A14E1020EDB50D76E4D
:101C3000040EDB50D66E0DD0020EDB50CF6E040EBC
:101C4000DB50CE6E06D0020EDB50B36E040EDB50BE
:101C5000B26E060EE15C02E2E16AE552E16EE55227
:101C6000E7CFD9FF1200D9CFE6FFE1CFD9FFA69E7B
:101C7000A69CA684FE0EDB50A96EFD0EDB50A86E5E
:101C8000550EA76EAA0EA76EA682A6B2FED7E55283
:101C9000E7CFD9FF1200D9CFE6FFE1CFD9FFFE0E83
:101CA000DB50A96EA694A69EA69CA680A850E552DD
:101CB000E7CFD9FF1200FD0EA96E0B0EA914A66E78
:101CC000A850FEE17E0E166E0E6EA9CF09F03BEC19
:101CD00021F00538F00B146E156AA5C008F0A6C0F7
:101CE00009F00D6E15C00EF0F7EC20F008C0A8F05A
:101CF00008C0E6FFD0DFE5520001A76F1200D9CF80
:101D0000E6FFE1CFD9FF040EE126948E949C240EC9
:101D1000AC6E900EAB6E080EB86EA7C018F0196AC4
:101D20001A6A1B6A1C6A1B0E1D6EB70E1E6E1F6A96
:101D30001CC006F01DC007F0086E1FC009F0FB0EA6
:101D4000DBCF0BF0FC0EDBCF0CF0FD0EDBCF0DF08C
:101D5000FE0EDBCF0EF0B4EC20F018500624146E0B
:101D600019500720156E1A500820166E1B500920B6
:101D7000176E1406000E155A165A175A14C0DFFFB4
:101D8000010E15C0DBFF020E16C0DBFF030E17C0ED
:101D9000DBFFD9CFE9FFDACFEAFFEECF14F0EECFC9
:101DA00015F0EECF16F0EFCF17F0080ED8901732DF
:101DB000163215321432E806F9E11450B06E000EF6
:101DC000DB50AF6E040EE15C02E2E16AE552E16EC7
:101DD000E552E7CFD9FF1200D9CFE6FFE1CFD9FF17
:101DE000ACA2FED7FE0EDB500001A725AD6EE5527A
:101DF000E7CFD9FF1200D9CFE6FFE1CFD9FFACA2E0
:101E0000FED7B850080B01E0010E146EFE0EDB5039
:101E100014C0E7FFE75204E0E8427F0BE706FCE16D
:101E20000001A725AD6EE552E7CFD9FF1200D9CF4B
:101E3000E6FFE1CFD9FFE65260C0F6FF61C0F7FFD1
:101E40000800F55010E0000160C0F6FF61C0F7FF28
:101E5000602B000E61230800F550DF6EDFCFE6FF38
:101E6000BBDFE552E9D7E552E552E7CFD9FF1200D3
:101E7000D9CFE6FFE1CFD9FFE65262C0F6FF63C0DB
:101E8000F7FF0800F55010E0000162C0F6FF63C0E4
:101E9000F7FF622B000E63230800F550DF6EDFCFE3
:101EA000E6FFA9DFE552E9D7E552E552E7CFD9FFD2
:101EB0001200D9CFE6FFE1CFD9FF0001A96BA951EC
:101EC000E76EFD0EDBCFE9FFFE0EDBCFEAFFE7504A
:101ED000E926000EEA22EF5013E0A951E76EFD0E4D
:101EE000DBCFE9FFFE0EDBCFEAFFE750E926000E6D
:101EF000EA22EF50E66E70DFE5520001A92BDFD732
:101F0000E552E7CFD9FF1200D9CFE6FFE1CFD9FFE5
:101F10000001A96BA951E76EFD0EDBCFE9FFFE0EB4
:101F2000DBCFEAFFE750E926000EEA22EF5013E08C
:101F3000A951E76EFD0EDBCFE9FFFE0EDBCFEAFF16
:101F4000E750E926000EEA22EF50E66E54DFE55234
:101F50000001A92BDFD7E552E7CFD9FF1200D9CF77
:101F6000E6FFE1CFD9FFE150FD0FE96EFF0EDA2069
:101F7000EA6E0F0ED880EE54270EED542AE2FD0EC5
:101F8000DBCF16F0FE0EDBCF17F0100E0D6E270E16
:101F90000E6E16C008F017C009F0F7EC20F008C06C
:101FA00016F009C017F00A0E0D6E0E6AF7EC20F05D
:101FB00004C016F005C017F00001A7510001042469
:101FC000146E000E0520156E300E1424E66E04DF2C
:101FD000E552D950FD0FE96EFF0EDA20EA6EE70EEA
:101FE000D880EE54030EED5422E2FD0EDBCF14F048
:101FF000FE0EDBCF15F0E80E0D6E030E0E6E14C054
:1020000008F015C009F0F7EC20F008C014F009C082
:1020100015F00A0E0D6E0E6AF7EC20F004C014F0F5
:1020200005C015F0300E0424E66ED6DEE552D95018
:10203000FD0FE96EFF0EDA20EA6E630ED880EE54D3
:10204000000EED5429E2FD0EDBCF16F0FE0EDBCFC5
:1020500017F0640E0D6E0E6A16C008F017C009F076
:10206000F7EC20F008C016F009C017F00A0E0D6E4C
:102070000E6AF7EC20F004C016F005C017F000015E
:10208000A75100010424146E000E0520156E300EB9
:102090001424E66EA1DEE552D950FD0FE96EFF0E65
:1020A000DA20EA6E090ED880EE54000EED5429E2D3
:1020B000FD0EDBCF16F0FE0EDBCF17F00A0E0D6E15
:1020C0000E6A16C008F017C009F0F7EC20F008C03F
:1020D00016F009C017F00A0E0D6E0E6AF7EC20F02C
:1020E00004C016F005C017F00001A7510001042438
:1020F000146E000E0520156E300E1424E66E6CDE94
:10210000E552FD0EDBCF16F0FE0EDBCF17F00A0E08
:102110000D6E0E6A16C008F017C009F0F7EC20F03B
:1021200004C016F005C017F00001A75100010424F7
:10213000146E000E0520156E300E1424E66E4CDE73
:10214000E552E552E7CFD9FF1200D9CFE6FFE1CF44
:10215000D9FF020EE1260C0E0001A725BD12070EC5
:10216000A725CA6EFD0EA96EA680A850FEE1FD0E41
:102170000001A725E8249416A7C018F0196A1A6A66
:102180001B6A100E086E096AFD0EDBCF0DF0FE0E05
:10219000DBCF0EF01AEC20F006C020F007C021F0D3
:1021A000226A236A21AE02D0226823681C6A1B0EB1
:1021B0001D6EB70E1E6E1F6A1CC006F01DC007F014
:1021C000086E1FC009F020C00BF021C00CF022C027
:1021D0000DF023C00EF0E6EC1FF018500624146E2C
:1021E00019500720156E1A5008201B50092014069C
:1021F000000E155A1450CB6ECB28166E176A086E57
:1022000017C009F0FB0EDBCF0DF0FC0EDBCF0EF09C
:102210001AEC20F006C014F007C015F0190E0D6E70
:102220000E6A06C008F007C009F0C0EC1FF008C035
:10223000DEFF09C0DDFF0001A751166E176ADE50F0
:102240001624146EDD501720156ED89015321432F6
:10225000D890153214321450BE6EDECF16F0DDCF9A
:1022600017F0030E1616000E1716A75100011624BC
:10227000146E000E1720040ED8901436E804FCE10A
:102280001450BD12020EE15C02E2E16AE552E16E19
:10229000E552E7CFD9FF1200D9CFE6FFE1CFD9FF52
:1022A000020EE1260C0E0001A725BA12070EA72583
:1022B000CA6EFD0EA96EA680A850FEE1FE0E0001BA
:1022C000A725E8249416A7C018F0196A1A6A1B6A91
:1022D000100E086E096AFD0EDBCF0DF0FE0EDBCF8F
:1022E0000EF01AEC20F006C020F007C021F0226AA0
:1022F000236A21AE02D0226823681C6A1B0E1D6E61
:10230000B70E1E6E1F6A1CC006F01DC007F0086ED7
:102310001FC009F020C00BF021C00CF022C00DF04E
:1023200023C00EF0E6EC1FF018500624146E19506E
:102330000720156E1A5008201B5009201406000EA5
:10234000155A1450CB6ECB28166E176A086E17C03C
:1023500009F0FB0EDBCF0DF0FC0EDBCF0EF01AEC1C
:1023600020F006C014F007C015F0190E0D6E0E6AAD
:1023700006C008F007C009F0C0EC1FF008C0DEFF7F
:1023800009C0DDFF0001A751166E176ADE50162442
:10239000146EDD501720156ED89015321432D89077
:1023A000153214321450BB6EDECF14F0DDCF15F0B1
:1023B000030E1416000E1516040ED8901436E804F9
:1023C000FCE11450BA12020EE15C02E2E16AE5524D
:1023D000E16EE552E7CFD9FF1200DACFE4FFE2CF9A
:1023E000DAFFE9CFE4FFEACFE4FFF6CFE4FFF7CF6F
:1023F000E4FFF5CFE4FFF3CFE4FFF4CFE4FFFACF3F
:10240000E4FF00EE00F0140EE80403E3EECFE4FF77
:10241000FBD700EE14F0100EE80403E3EECFE4FF68
:10242000FBD7E6529EAA9CD09E9AD8EC20F0E66E8E
:10243000D1C0E9FFEA6AE9BEEA68640EE926000E47
:10244000EA22E552E750EF6ED1C0D2F0D1C0E9FFE9
:10245000EA6AE9BEEA68640EE926000EEA22EF5055
:10246000590A15E0730A0EE0790A0CE0120A0AE034
:10247000080A03E00A0A10E105D0010E0001CB6F43
:10248000CC6B0AD0010E0001C96FCA6B05D00001E8
:10249000D16B0001590E646F590E0001645D32E189
:1024A0000001D1052FE1200E0001645DAE50540AF9
:1024B0001DE0040A12E0140A09E0080A23E10F0EE5
:1024C000E66E7C0EE66E8EEC08F016D00F0EE66E11
:1024D0007C0EE66E68EC09F006D00F0EE66E7C0E00
:1024E000E66E8EEC08F0E552E5520CD00F0EE66E6B
:1024F0007C0EE66E42EC0AF0E552E552010E000158
:10250000CF6FD06B4F0E0001655D0BE14E0E665D27
:1025100008E10F0EE66E7C0EE66E8EEC08F0E552DA
:10252000E5524F0E0001655D0EE1460E665D0BE162
:10253000460E675D08E10F0EE66E7C0EE66E68ECF7
:1025400009F0E552E5520001D12B400EE76ED1199A
:10255000E8AE02D0E73402D0E750D15D01E3D16BA1
:10256000E55200EE23F0100EE80403E3E5CFEDFFA3
:10257000FBD700EE13F0140EE80403E3E5CFEDFF04
:10258000FBD7E5CFFAFFE5CFF4FFE5CFF3FFE5CFCB
:10259000F5FFE5CFF7FFE5CFF6FFE5CFEAFFE5CFA3
:1025A000E9FFE5CFDAFF1100D9CFE6FFE1CFD9FF90
:1025B000E652110EDF6E020EB06E700EAF6ED00ED0
:1025C000E66E070EE66E6DEC0CF0E552E552380E45
:1025D000DF24E66E10DCE552480EE66E0CDCE552B8
:1025E000480EE66EFBEC0EF0E5520F0EE66E7C0E2A
:1025F000E66E42EC0AF0E552E552F40EE66E010E8C
:10260000E66E6DEC0CF0E552E5520F0EE66E7C0EB8
:10261000E66E42EC0AF0E552E5520001C951CA11DA
:102620001CE1040EB06EE10EAF6EA00EE66E0F0E52
:10263000E66E6DEC0CF0E552E552380EDF24E66EE6
:10264000FBEC0EF0E552480EE66EFBEC0EF0E552A8
:10265000480EE66EFBEC0EF0D7D7C96BCA6BDF06EF
:10266000DFCF14F0BD0E1424E66EFBEC0EF0E55245
:10267000C20EE66EFBEC0EF0E552C60EE66EFBEC0B
:102680000EF0E552E80EE66EFBEC0EF0E552DE0EC3
:10269000E66EFBEC0EF0E552E40EE66EFBEC0EF09F
:1026A000E552F20EE66EFBEC0EF0E552400EE66EE1
:1026B000FBEC0EF0E552A40EE66EFBEC0EF0E552DC
:1026C0001A0EE66EFBEC0EF0E552E80EE66E030E17
:1026D000E66E6DEC0CF0E552E5520F0EE66E7C0EE8
:1026E000E66E42EC0AF0E552E5520001C951CA110A
:1026F0003DE1D00EE66E070EE66E6DEC0CF0E55295
:10270000E552DFCF14F0BD0E1424E66EFBEC0EF0A4
:10271000E552C20EE66EFBEC0EF0E552C60EE66E1A
:10272000FBEC0EF0E552E80EE66EFBEC0EF0E55227
:10273000DE0EE66EFBEC0EF0E552E40EE66EFBEC10
:102740000EF0E552F20EE66EFBEC0EF0E552400E96
:10275000E66EFBEC0EF0E552A40EE66EFBEC0EF01E
:10276000E5521A0EE66EFBEC0EF0B6D7C96BCA6BDB
:10277000DF06DFCF14F0D80E1424E66EFBEC0EF06B
:10278000E552CA0EE66EFBEC0EF0E552E80EE66E80
:10279000FBEC0EF0E552400EE66EFBEC0EF0E5525F
:1027A000D20EE66EFBEC0EF0E552400EE66EFBEC50
:1027B0000EF0E552C20EE66EFBEC0EF0E552200E76
:1027C000E66EECEC0EF0E552BAC0E6FFECEC0EF073
:1027D000E552BBC0E6FFECEC0EF0E552BCC0E6FFF4
:1027E000ECEC0EF0E552BDC0E6FFECEC0EF0E5526D
:1027F000BEC0E6FFECEC0EF0E552BFC0E6FFECEC2D
:102800000EF0E552C0C0E6FFECEC0EF0E552C1C0A0
:10281000E6FFECEC0EF0E552C2C0E6FFECEC0EF089
:10282000E552C3C0E6FFECEC0EF0E552C4C0E6FF93
:10283000ECEC0EF0E552C5C0E6FFECEC0EF0E55214
:10284000C6C0E6FFECEC0EF0E552C7C0E6FFECECCC
:102850000EF0E5521A0EE66EFBEC0EF0E552E80EB5
:10286000E66E030EE66E6DEC0CF0E552E5520F0ECF
:10287000E66E7C0EE66E42EC0AF0E552E55200018F
:10288000C951CA1101E07ED0D00EE66E070EE66E89
:102890006DEC0CF0E552E552DFCF14F0D80E1424A5
:1028A000E66EFBEC0EF0E552CA0EE66EFBEC0EF0A7
:1028B000E552E80EE66EFBEC0EF0E552400EE66ED9
:1028C000FBEC0EF0E552D20EE66EFBEC0EF0E5529C
:1028D000400EE66EFBEC0EF0E552C20EE66EFBEC2F
:1028E0000EF0E552200EE66EECEC0EF0E552BAC0AA
:1028F000E6FFECEC0EF0E552BBC0E6FFECEC0EF0B0
:10290000E552BCC0E6FFECEC0EF0E552BDC0E6FFC0
:10291000ECEC0EF0E552BEC0E6FFECEC0EF0E5523A
:10292000BFC0E6FFECEC0EF0E552C0C0E6FFECECF9
:102930000EF0E552C1C0E6FFECEC0EF0E552C2C06D
:10294000E6FFECEC0EF0E552C3C0E6FFECEC0EF057
:10295000E552C4C0E6FFECEC0EF0E552C5C0E6FF60
:10296000ECEC0EF0E552C6C0E6FFECEC0EF0E552E2
:10297000C7C0E6FFECEC0EF0E5521A0EE66EFBEC7B
:102980000EF074D7C96BCA6BDF06DFCF14F0D90E17
:102990001424E66EFBEC0EF0E552CA0EE66EFBEC7C
:1029A0000EF0E552E80EE66EFBEC0EF0E552400E3E
:1029B000E66EFBEC0EF0E552D20EE66EFBEC0EF08E
:1029C000E552400EE66EFBEC0EF0E552CE0EE66EE2
:1029D000FBEC0EF0E552400EE66EFBEC0EF0E5521D
:1029E000BAC0E6FFECEC0EF0E552BBC0E6FFECEC43
:1029F0000EF0E552BCC0E6FFECEC0EF0E552BDC0B7
:102A0000E6FFECEC0EF0E552BEC0E6FFECEC0EF09B
:102A1000E552BFC0E6FFECEC0EF0E552C0C0E6FFA9
:102A2000ECEC0EF0E552C1C0E6FFECEC0EF0E55226
:102A3000C2C0E6FFECEC0EF0E5522E0E0001C25DC6
:102A400003E1C3C0E6FF2FD02E0EC35D08E1C3C073
:102A5000E6FFECEC0EF0E552C4C0E6FF24D02E0EEB
:102A6000C45D0DE1C3C0E6FFECEC0EF0E552C4C05E
:102A7000E6FFECEC0EF0E552C5C0E6FF14D02E0EDA
:102A8000C55D14E1C3C0E6FFECEC0EF0E552C4C036
:102A9000E6FFECEC0EF0E552C5C0E6FFECEC0EF004
:102AA000E552310EE66EECEC0EF0E5521A0EE66ED3
:102AB000FBEC0EF0E552E80EE66E030EE66E6DECF2
:102AC0000CF0E552E5520F0EE66E7C0EE66E42EC1F
:102AD0000AF0E552E5520001C951CA1101E09ED049
:102AE000D00EE66E070EE66E6DEC0CF0E552E55288
:102AF000DFCF14F0D90E1424E66EFBEC0EF0E55295
:102B0000CA0EE66EFBEC0EF0E552E80EE66EFBEC4C
:102B10000EF0E552400EE66EFBEC0EF0E552D20EE2
:102B2000E66EFBEC0EF0E552400EE66EFBEC0EF0AE
:102B3000E552CE0EE66EFBEC0EF0E552400EE66E70
:102B4000FBEC0EF0E552BAC0E6FFECEC0EF0E552FD
:102B5000BBC0E6FFECEC0EF0E552BCC0E6FFECECCF
:102B60000EF0E552BDC0E6FFECEC0EF0E552BEC043
:102B7000E6FFECEC0EF0E552BFC0E6FFECEC0EF029
:102B8000E552C0C0E6FFECEC0EF0E552C1C0E6FF36
:102B9000ECEC0EF0E552C2C0E6FFECEC0EF0E552B4
:102BA0002E0E0001C25D03E1C3C0E6FF2FD02E0E42
:102BB000C35D08E1C3C0E6FFECEC0EF0E552C4C013
:102BC000E6FF24D02E0EC45D0DE1C3C0E6FFECECA1
:102BD0000EF0E552C4C0E6FFECEC0EF0E552C5C0C5
:102BE000E6FF14D02E0EC55D14E1C3C0E6FFECEC89
:102BF0000EF0E552C4C0E6FFECEC0EF0E552C5C0A5
:102C0000E6FFECEC0EF0E552310EE66EECEC0EF069
:102C1000E5521A0EE66EFBEC0EF054D7C96BCA6B88
:102C2000DF06DFCF14F0DA0E1424E66EFBEC0EF0B4
:102C3000E552CA0EE66EFBEC0EF0E552E80EE66ECB
:102C4000FBEC0EF0E552400EE66EFBEC0EF0E552AA
:102C5000D20EE66EFBEC0EF0E552400EE66EFBEC9B
:102C60000EF0E552C80EE66EFBEC0EF0E552400E9B
:102C7000E66EFBEC0EF0E552600EE66EFBEC0EF03D
:102C8000E5521A0EE66EFBEC0EF0E552F40EE66E1F
:102C9000010EE66E6DEC0CF0E552E5520F0EE66E9D
:102CA0007C0EE66E42EC0AF0E552E5520001C95195
:102CB000CA113DE1E80EE66E030EE66E6DEC0CF017
:102CC000E552E552DFCF14F0DA0E1424E66EFBEC89
:102CD0000EF0E552CA0EE66EFBEC0EF0E552E80E81
:102CE000E66EFBEC0EF0E552400EE66EFBEC0EF0ED
:102CF000E552D20EE66EFBEC0EF0E552400EE66EAB
:102D0000FBEC0EF0E552C80EE66EFBEC0EF0E55261
:102D1000400EE66EFBEC0EF0E552600EE66EFBEC4C
:102D20000EF0E5521A0EE66EFBEC0EF0B6D7C96B4C
:102D3000CA6BDF06DFCF14F0DB0E1424E66EFBEC6B
:102D40000EF0E552CA0EE66EFBEC0EF0E552E80E10
:102D5000E66EFBEC0EF0E552400EE66EFBEC0EF07C
:102D6000E552EA0EE66EFBEC0EF0E552400EE66E22
:102D7000FBEC0EF0E552C40EE66EFBEC0EF0E552F5
:102D8000400EE66EFBEC0EF0E552620EE66EFBECDA
:102D90000EF0E552720EE66EFBEC0EF0E552640E9C
:102DA000E66EFBEC0EF0E552600EE66EFBEC0EF00C
:102DB000E552600EE66EFBEC0EF0E5521A0EE66E82
:102DC000FBEC0EF0E5520F0EE66E7C0EE66E42EC6A
:102DD0000AF0E552E552E80EE66E030EE66E6DEC83
:102DE0000CF0E552E5520F0EE66E7C0EE66E42ECFC
:102DF0000AF0E552E552DFCF14F0DB0E1424E66E44
:102E0000FBEC0EF0E552CA0EE66EFBEC0EF0E5525E
:102E1000E80EE66EFBEC0EF0E552400EE66EFBECC3
:102E20000EF0E552D20EE66EFBEC0EF0E552E00E2F
:102E3000E66EFBEC0EF0E552400EE66EFBEC0EF09B
:102E4000E552E00EE66EFBEC0EF0E552E40EE66EA7
:102E5000FBEC0EF0E552DE0EE66EFBEC0EF0E552FA
:102E6000E80EE66EFBEC0EF0E552DE0EE66EFBECD5
:102E70000EF0E552400EE66EFBEC0EF0E552620EEF
:102E8000E66EFBEC0EF0E552700EE66EFBEC0EF01B
:102E9000E5521A0EE66EFBEC0EF0E552E80EE66E19
:102EA000030EE66E6DEC0CF0E552E5520F0EE66E89
:102EB0007C0EE66E42EC0AF0E552E552DFCF14F0EC
:102EC000DB0E1424E66EFBEC0EF0E552CA0EE66E45
:102ED000FBEC0EF0E552E80EE66EFBEC0EF0E55270
:102EE000400EE66EFBEC0EF0E552DE0EE66EFBECFD
:102EF0000EF0E552400EE66EFBEC0EF0E552C80E09
:102F0000E66EFBEC0EF0E552400EE66EFBEC0EF0CA
:102F1000E552A60EE66EFBEC0EF0E552C20EE66E32
:102F2000FBEC0EF0E552DC0EE66EFBEC0EF0E5522B
:102F3000AA0EE66EFBEC0EF0E552A60EE66EFBEC7A
:102F40000EF0E552840EE66EFBEC0EF0E5525A0EE2
:102F5000E66EFBEC0EF0E552CC0EE66EFBEC0EF0EE
:102F6000E552D80EE66EFBEC0EF0E552F20EE66E80
:102F7000FBEC0EF0E5521A0EE66EFBEC0EF0E5529D
:102F8000F40EE66E010EE66E6DEC0CF0E552E552C5
:102F90000F0EE66E7C0EE66E42EC0AF0E552E5524C
:102FA000DFCF14F0DB0E1424E66EFBEC0EF0E552DE
:102FB000C20EE66EFBEC0EF0E552EC0EE66EFBEC9C
:102FC0000EF0E552CA0EE66EFBEC0EF0E5521A0E5C
:102FD000E66EFBEC0EF0E552E80EE66E030EE66ED2
:102FE0006DEC0CF0E552E5520F0EE66E7C0EE66ECF
:102FF00042EC0AF0E552E5520001C951CA1107E15D
:10300000D00EE66E070EE66E6DEC0CF0C7D7C96BFE
:10301000CA6BDF06DFCF14F0DA0E1424E66EFBEC89
:103020000EF0E552CA0EE66EFBEC0EF0E552C40E51
:10303000E66EFBEC0EF0E552DE0EE66EFBEC0EF0FB
:10304000E552DE0EE66EFBEC0EF0E552E80EE66EA3
:10305000FBEC0EF0E5521A0EE66EFBEC0EF0E552BC
:10306000E80EE66E030EE66E6DEC0CF0E552E552EE
:103070000F0EE66E7C0EE66E42EC0AF0E552E5526B
:103080000001C951CA1104E1A00EE66E0F0EEBD784
:10309000DFCF14F0DA0E1424E66EFBEC0EF0E552EE
:1030A000CA0EE66EFBEC0EF0E552C40EE66EFBECCB
:1030B0000EF0E552DE0EE66EFBEC0EF0E552DE0E93
:1030C000E66EFBEC0EF0E552E80EE66EFBEC0EF061
:1030D000E5521A0EE66EFBEC0EF0E5520001C96BEC
:1030E000CA6BDF06020EB06E700EAF6E640EE66E37
:1030F000E66A6DEC0CF0E552E5523F0EDF24E66E19
:10310000FBEC0EF0E552480EE66EFBEC0EF0E552DD
:10311000480EE66EFBEC0EF0E5520F0EE66E7C0EEE
:10312000E66E42EC0AF0E552E552F40EE66E010E50
:10313000E66E6DEC0CF0E552E5520F0EE66E7C0E7D
:10314000E66E42EC0AF0E552E5520001C951CA119F
:1031500027E1A00EE66E0F0EE66E6DEC0CF0E55268
:10316000E5523F0EDF24E66EFBEC0EF0E552480E12
:10317000E66EFBEC0EF0E552480EE66EFBEC0EF050
:10318000E5520F0EE66E7C0EE66E42EC0AF0E5525A
:10319000E552F40EE66E010EE66E6DEC0CF0D3D740
:1031A000C96BCA6BDF06DFCF14F0DE0E1424E66EA7
:1031B000FBEC0EF0E552CA0EE66EFBEC0EF0E552AB
:1031C000E80EE66EFBEC0EF0E552400EE66EFBEC10
:1031D0000EF0E552EE0EE66EFBEC0EF0E552400E00
:1031E000E66EFBEC0EF0E552E60EE66EFBEC0EF042
:1031F000E552400EE66EFBEC0EF0E552AAC0E6FF8B
:10320000ECEC0EF0E552ABC0E6FFECEC0EF0E55254
:10321000ACC0E6FFECEC0EF0E552ADC0E6FFECEC26
:103220000EF0E552AEC0E6FFECEC0EF0E552AFC09A
:10323000E6FFECEC0EF0E552B0C0E6FFECEC0EF071
:10324000E552B1C0E6FFECEC0EF0E552B2C0E6FF8D
:10325000ECEC0EF0E552B3C0E6FFECEC0EF0E552FC
:10326000B4C0E6FFECEC0EF0E552B5C0E6FFECECC6
:103270000EF0E552B6C0E6FFECEC0EF0E552B7C03A
:10328000E6FFECEC0EF0E552B8C0E6FFECEC0EF019
:10329000E552B9C0E6FFECEC0EF0E552BAC0E6FF2D
:1032A000ECEC0EF0E5521A0EE66EFBEC0EF0E55279
:1032B000F40EE66E010EE66E6DEC0CF0E552E55292
:1032C0000F0EE66E7C0EE66E42EC0AF0E552E55219
:1032D0000001C951CA1109E1D00EE66E070EE66E73
:1032E0006DEC0CF0E552E5525ED7C96BCA6BDF0698
:1032F000DFCF14F0DF0E1424E66EFBEC0EF0E55287
:10330000CA0EE66EFBEC0EF0E552E80EE66EFBEC44
:103310000EF0E552400EE66EFBEC0EF0E552EE0EBE
:10332000E66EFBEC0EF0E552400EE66EFBEC0EF0A6
:10333000E552E00EE66EFBEC0EF0E552400EE66E56
:10334000FBEC0EF0E552B0C0E6FFECEC0EF0E552FF
:10335000B1C0E6FFECEC0EF0E552B2C0E6FFECECDB
:103360000EF0E552B3C0E6FFECEC0EF0E552B4C04F
:10337000E6FFECEC0EF0E552B5C0E6FFECEC0EF02B
:10338000E552B6C0E6FFECEC0EF0E552B7C0E6FF42
:10339000ECEC0EF0E552B8C0E6FFECEC0EF0E552B6
:1033A000B9C0E6FFECEC0EF0E552BAC0E6FFECEC7B
:1033B0000EF0E552BBC0E6FFECEC0EF0E552BCC0EF
:1033C000E6FFECEC0EF0E552BDC0E6FFECEC0EF0D3
:1033D000E552BEC0E6FFECEC0EF0E552BFC0E6FFE2
:1033E000ECEC0EF0E552C0C0E6FFECEC0EF0E5525E
:1033F0001A0EE66EFBEC0EF0E552F40EE66E010ED0
:10340000E66E6DEC0CF0E552E5520F0EE66E7C0EAA
:10341000E66E42EC0AF0E552E5520001C951CA11CC
:1034200009E1D00EE66E070EE66E6DEC0CF0E5528B
:10343000E5525ED7C96BCA6BDF06DFCF14F0E00E32
:103440001424E66EFBEC0EF0E552CA0EE66EFBECC1
:103450000EF0E552E80EE66EFBEC0EF0E552400E83
:10346000E66EFBEC0EF0E552C60EE66EFBEC0EF0DF
:10347000E552DE0EE66EFBEC0EF0E552DA0EE66E7D
:10348000FBEC0EF0E552DA0EE66EFBEC0EF0E552C8
:10349000400EE66EFBEC0EF0E552DE0EE66EFBEC47
:1034A0000EF0E552E00EE66EFBEC0EF0E552CA0EB1
:1034B000E66EFBEC0EF0E552DC0EE66EFBEC0EF079
:1034C000E552400EE66EFBEC0EF0E552540EE66E51
:1034D000FBEC0EF0E552A60EE66EFBEC0EF0E552AC
:1034E000C20EE66EFBEC0EF0E552DC0EE66EFBEC77
:1034F0000EF0E552AA0EE66EFBEC0EF0E552A60EBB
:10350000E66EFBEC0EF0E552840EE66EFBEC0EF080
:10351000E552540EE66EFBEC0EF0E5521A0EE66E26
:10352000FBEC0EF0E552F40EE66E010EE66E6DEC6D
:103530000CF0E552E5520F0EE66E7C0EE66E42ECA4
:103540000AF0E552E5520001C951CA1101E07ED0EE
:10355000E80EE66E030EE66E6DEC0CF0E552E552F9
:10356000DFCF14F0E00E1424E66EFBEC0EF0E55213
:10357000CA0EE66EFBEC0EF0E552E80EE66EFBECD2
:103580000EF0E552400EE66EFBEC0EF0E552C60E74
:10359000E66EFBEC0EF0E552DE0EE66EFBEC0EF096
:1035A000E552DA0EE66EFBEC0EF0E552DA0EE66E50
:1035B000FBEC0EF0E552400EE66EFBEC0EF0E55231
:1035C000DE0EE66EFBEC0EF0E552E00EE66EFBEC76
:1035D0000EF0E552CA0EE66EFBEC0EF0E552DC0E84
:1035E000E66EFBEC0EF0E552400EE66EFBEC0EF0E4
:1035F000E552540EE66EFBEC0EF0E552A60EE66EBA
:10360000FBEC0EF0E552C20EE66EFBEC0EF0E5525E
:10361000DC0EE66EFBEC0EF0E552AA0EE66EFBEC5D
:103620000EF0E552A60EE66EFBEC0EF0E552840EAF
:10363000E66EFBEC0EF0E552540EE66EFBEC0EF07F
:10364000E5521A0EE66EFBEC0EF074D7C96BCA6B2E
:10365000DF06DFCF14F0E10E1424E66EFBEC0EF073
:10366000E552CA0EE66EFBEC0EF0E552E80EE66E91
:10367000FBEC0EF0E552400EE66EFBEC0EF0E55270
:10368000C60EE66EFBEC0EF0E552DE0EE66EFBECCF
:103690000EF0E552DA0EE66EFBEC0EF0E552DA0EB5
:1036A000E66EFBEC0EF0E552400EE66EFBEC0EF023
:1036B000E552E40EE66EFBEC0EF0E552CA0EE66E45
:1036C000FBEC0EF0E552DA0EE66EFBEC0EF0E55286
:1036D000DE0EE66EFBEC0EF0E552E80EE66EFBEC5D
:1036E0000EF0E552CA0EE66EFBEC0EF0E552400E0F
:1036F000E66EFBEC0EF0E5523C0EE66EFBEC0EF0D7
:10370000E5521A0EE66EFBEC0EF0E5520F0EE66E79
:103710007C0EE66E42EC0AF0E552E552F40EE66EDF
:10372000010EE66E6DEC0CF0E552E5520F0EE66E02
:103730007C0EE66E42EC0AF0E552E5520001C951FA
:10374000CA1101E088D0E80EE66E030EE66E6DEC5D
:103750000CF0E552E552DFCF14F0E10E1424E66ED2
:10376000FBEC0EF0E552CA0EE66EFBEC0EF0E552F5
:10377000E80EE66EFBEC0EF0E552400EE66EFBEC5A
:103780000EF0E552C60EE66EFBEC0EF0E552DE0ED4
:10379000E66EFBEC0EF0E552DA0EE66EFBEC0EF098
:1037A000E552DA0EE66EFBEC0EF0E552400EE66EE8
:1037B000FBEC0EF0E552E40EE66EFBEC0EF0E5528B
:1037C000CA0EE66EFBEC0EF0E552DA0EE66EFBEC8E
:1037D0000EF0E552DE0EE66EFBEC0EF0E552E80E62
:1037E000E66EFBEC0EF0E552CA0EE66EFBEC0EF058
:1037F000E552400EE66EFBEC0EF0E552540EE66E1E
:10380000FBEC0EF0E552A60EE66EFBEC0EF0E55278
:10381000C20EE66EFBEC0EF0E552DC0EE66EFBEC43
:103820000EF0E552AA0EE66EFBEC0EF0E552A60E87
:10383000E66EFBEC0EF0E552840EE66EFBEC0EF04D
:10384000E552540EE66EFBEC0EF0E5521A0EE66EF3
:10385000FBEC0EF06AD7C96BCA6BDF06DFCF14F042
:10386000E20E1424E66EFBEC0EF0E552CA0EE66E94
:10387000FBEC0EF0E552E80EE66EFBEC0EF0E552C6
:10388000400EE66EFBEC0EF0E552D20EE66EFBEC5F
:103890000EF0E552E00EE66EFBEC0EF0E552400E47
:1038A000E66EFBEC0EF0E552D80EE66EFBEC0EF089
:1038B000E552DE0EE66EFBEC0EF0E552C60EE66E4D
:1038C000FBEC0EF0E552C20EE66EFBEC0EF0E5529C
:1038D000D80EE66EFBEC0EF0E552400EE66EFBEC09
:1038E0000EF0E552700EE66EFBEC0EF0E552600E47
:1038F000E66EFBEC0EF0E5521A0EE66EFBEC0EF0F7
:10390000E552F40EE66E010EE66E6DEC0CF0E5523B
:10391000E5520F0EE66E7C0EE66E42EC0AF0E552C2
:10392000E5520001C951CA115BE1E80EE66E030ED3
:10393000E66E6DEC0CF0E552E552DFCF14F0E20ECE
:103940001424E66EFBEC0EF0E552CA0EE66EFBECBC
:103950000EF0E552E80EE66EFBEC0EF0E552400E7E
:10396000E66EFBEC0EF0E552D20EE66EFBEC0EF0CE
:10397000E552E00EE66EFBEC0EF0E552400EE66E10
:10398000FBEC0EF0E552D80EE66EFBEC0EF0E552C5
:10399000DE0EE66EFBEC0EF0E552C60EE66EFBECBC
:1039A0000EF0E552C20EE66EFBEC0EF0E552D80EBC
:1039B000E66EFBEC0EF0E552400EE66EFBEC0EF010
:1039C000E552700EE66EFBEC0EF0E552600EE66E10
:1039D000FBEC0EF0E5521A0EE66EFBEC0EF098D7FB
:1039E000C96BCA6BDF06DFCF14F0E30E1424E66E5A
:1039F000FBEC0EF0E552C20EE66EFBEC0EF0E5526B
:103A0000EC0EE66EFBEC0EF0E552CA0EE66EFBEC39
:103A10000EF0E5521A0EE66EFBEC0EF0E552E80EE3
:103A2000E66E030EE66E6DEC0CF0E552E5520F0EFD
:103A3000E66E7C0EE66E42EC0AF0E552E5520001BD
:103A4000C951CA1133E1D00EE66E070EE66E6DEC79
:103A50000CF0E552E552DFCF14F0E30E1424E66ECD
:103A6000FBEC0EF0E552C20EE66EFBEC0EF0E552FA
:103A7000EC0EE66EFBEC0EF0E552CA0EE66EFBECC9
:103A80000EF0E5521A0EE66EFBEC0EF0E552E80E73
:103A9000E66E030EE66E6DEC0CF0E552E5520F0E8D
:103AA000E66E7C0EE66E42EC0AF0BFD7C96BCA6BBD
:103AB000DF06DFCF14F0D20E1424E66EFBEC0EF01E
:103AC000E552DE0EE66EFBEC0EF0E552D20EE66E2F
:103AD000FBEC0EF0E552DC0EE66EFBEC0EF0E55270
:103AE000400EE66EFBEC0EF0E552AAC0E6FFECECF1
:103AF0000EF0E552ABC0E6FFECEC0EF0E552ACC0C8
:103B0000E6FFECEC0EF0E552ADC0E6FFECEC0EF09B
:103B1000E552AEC0E6FFECEC0EF0E552AFC0E6FFBA
:103B2000ECEC0EF0E552B0C0E6FFECEC0EF0E55226
:103B3000B1C0E6FFECEC0EF0E552B2C0E6FFECECF3
:103B40000EF0E552B3C0E6FFECEC0EF0E552B4C067
:103B5000E6FFECEC0EF0E552B5C0E6FFECEC0EF043
:103B6000E552B6C0E6FFECEC0EF0E552B7C0E6FF5A
:103B7000ECEC0EF0E552B8C0E6FFECEC0EF0E552CE
:103B8000B9C0E6FFECEC0EF0E552BAC0E6FFECEC93
:103B90000EF0E552BBC0E6FFECEC0EF0E5521A0E5B
:103BA000E66EFBEC0EF0E5520F0EE66E7C0EE66E56
:103BB00042EC0AF0E552E552A00EE66E0F0EE66EFC
:103BC0006DEC0CF0E552E5520F0EE66E7C0EE66EE3
:103BD00042EC0AF0E552E5520001CB51CC1101E074
:103BE00083D0A00EE66E0F0EE66E6DEC0CF0E55283
:103BF000E552DFCF14F0D20E1424E66EFBEC0EF08B
:103C0000E552DE0EE66EFBEC0EF0E552D20EE66EED
:103C1000FBEC0EF0E552DC0EE66EFBEC0EF0E5522E
:103C2000400EE66EFBEC0EF0E552AAC0E6FFECECAF
:103C30000EF0E552ABC0E6FFECEC0EF0E552ACC086
:103C4000E6FFECEC0EF0E552ADC0E6FFECEC0EF05A
:103C5000E552AEC0E6FFECEC0EF0E552AFC0E6FF79
:103C6000ECEC0EF0E552B0C0E6FFECEC0EF0E552E5
:103C7000B1C0E6FFECEC0EF0E552B2C0E6FFECECB2
:103C80000EF0E552B3C0E6FFECEC0EF0E552B4C026
:103C9000E6FFECEC0EF0E552B5C0E6FFECEC0EF002
:103CA000E552B6C0E6FFECEC0EF0E552B7C0E6FF19
:103CB000ECEC0EF0E552B8C0E6FFECEC0EF0E5528D
:103CC000B9C0E6FFECEC0EF0E552BAC0E6FFECEC52
:103CD0000EF0E552BBC0E6FFECEC0EF0E5521A0E1A
:103CE000E66EFBEC0EF06FD7CB6BCC6BDF06E552CC
:103CF000E552E7CFD9FF12005BEC0EF0200EE66E26
:103D00009D0EE66E1CEC08F0E552E552800EE66E64
:103D1000250EE66EE66AE66A7FEC0EF0E552E552A5
:103D2000E552E5520E0EE66EACEC0CF0E552D4EC2A
:103D300012F00001010ECF19FCE1D051FAE1CF6B76
:103D4000D06BE66AFDEC0CF0E552F3CFD3F0F4CF84
:103D5000D4F0F40EE66E010EE66E6DEC0CF0E5525A
:103D6000E5520001F80E626F3D0E636F38EC0FF004
:103D70000001D56BD66BAA0ED525E96E000ED621B3
:103D8000EA6EEF501AE0400EA725E00BE838E84055
:103D9000146EAA0ED525E96E000ED621EA6EEF50FC
:103DA0001402F3CFA4F0F3CFE6FFFBEC0EF0E552E4
:103DB0000001D52B000ED623DED70001AC0E626FBA
:103DC0003E0E636F38EC0FF0D3C0E6FFD4C0E6FFC1
:103DD000AFEC0FF0E552E5520001BD0E626F3E0EF2
:103DE000636F38EC0FF0F40EE66E010EE66E6DECCC
:083DF0000CF0E552E5529DD7ED
:083DF80090A8A8A05E625C62C5
:103E000040646060409E961A1486DEDCE8CADCE8F6
:103E10005AA8F2E0CA7440E8CAF0E85ED0E8DAD8FE
:103E20001A141A1478C6CADCE8CAE47C78D2CCE446
:103E3000C2DACA40E6E4C67A44D0E8E8E0E6745E56
:103E40005EC8DEC6E65CCEDEDECED8CA5CC6DEDA92
:103E50005EE6E0E4CAC2C8E6D0CACAE85ECCDEE4E8
:103E6000DAA4CAE6E0DEDCE6CA7ECCDEE4DAD6CA54
:103E7000F27AC888B4EEACD8A468A48E6AE6A8AE7C
:103E80006A9CCAD8DE64A4D89CA0AC8AA264B2DAC8
:103E9000C66C9AA24CD2CCE24A64604CCADCE8E41C
:103EA000F25C605CE6D2DCCED8CA7A004CCADCE8B0
:103EB000E4F25C625CE6D2DCCED8CA7A004CE6EA78
:103EC000C4DAD2E87AA6EAC4DAD2E8447C785ED2D0
:103ED000CCE4C2DACA7C7890627C94DED2DC40E822
:103EE000D2DCF2EAE4D85CC6DEDA5EA6C2DCAAA6C0
:103EF00084785E90627C78A07C785E90627C82C6DA
:103F0000C6CAE6E64078C240D0E4CACC7A44D0E8DB
:103F1000E8E0E6745E5EC8DEC6E65CCEDEDECED8E5
:103F2000CA5CC6DEDA5EE6E0E4CAC2C8E6D0CACA47
:103F3000E85EC6C6C67ED6CAF27A6082E06666646D
:103F40009E82D0DC9ACA64C888B4EEACD8A468A4B7
:103F50008E6AE6A8AE6A9CCAD8DE64A4D89CA0ACDF
:103F60008AA264B2DAC6447C98DECEE6785EC27C71
:103F7000785EA07C785EC6CADCE8CAE47C1A1400CD
:103F8000006A0EAEC9EF1FF00D6C0E1EE86A0E221D
:103F9000001E09AED1EF1FF0086C091EE86A092265
:103FA000001EF7EC20F009BEE1EF1FF000AE000CA0
:103FB000086C091EE86A0922046C051EE86A0522DD
:103FC000000C00BED8EF1FF00188FF0C006AE86A01
:103FD0000EAEF3EF1FF00B6C0C1E0D1E0E1E0C220E
:103FE0000D220E22001E09AEFEEF1FF0066C071E0A
:103FF000081E091E072208220922001EB4EC20F028
:1040000009BE15EF20F000AE000C066C071E081E5E
:10401000091EE86A072208220922026C031E041EF8
:10402000051E032204220522000C00BE05EF20F02D
:104030000188FF0C09C013F008C012F008500D02EF
:10404000F4CF07F0F3CF06F009500E02F4CF09F0D9
:10405000F3CF08F00D02F3500726F4500822E86A67
:10406000092212500E02F3500726F4500822E86A83
:1040700009220EAE40EF20F01250085E1350095A8C
:1040800013AE000C0D50085E0E50095A000C08C00B
:1040900012F008500D02F4CF07F0F3CF06F00950EC
:1040A0000E02F4CF09F0F3CF08F00D02F35007260B
:1040B000F4500822E86A092212500E02F350072633
:0A40C000F4500822E86A0922000CFF
:0640CA002A0EF66E100E36
:1040D000F76E000EF86E00010900F550DC6F090064
:1040E000F550DD6F03E1DC6701D03DD00900F550EC
:1040F000D76F0900F550D86F0900F550D96F090046
:104100000900F550E96E0900F550EA6E0900090052
:104110000900F550DA6F0900F550DB6F090009005E
:10412000F6CFDEF0F7CFDFF0F8CFE0F0D7C0F6FF44
:10413000D8C0F7FFD9C0F8FF0001DA5302E1DB5322
:1041400007E00900F550EE6EDA07F8E2DB07F9D771
:10415000DEC0F6FFDFC0F7FFE0C0F8FF0001DC07BC
:08416000000EDD5BBFD7120069
:08416800056A046A036A026A99
:10417000200EE76ED8900636073608360936023626
:104180000336043605360B50025C0C5003580D50B4
:1041900004580E50055809E30B50025E0C50035AA8
:1041A0000D50045A0E50055A062AE72EE4D7120085
:1041B000D9CFE6FFDACFE6FFE1CFD9FFE2CFDAFFD2
:1041C000E652F20E0001E117ABAC03D0E191ABB0C7
:1041D000E181ABB4E185ABB2E187AE50DF6EDF5079
:0E41E000E552E552E5CFDAFFE7CFD9FF120036
:0241EE00056A60
:1041F000046A100EE76ED890083609360436053684
:104200000D50045C0E50055805E30D50045E0E5031
:0A421000055A082AE72EF0D7120025
:06421A00FF0EE350246ECC
:10422000480E01D04C0EE76EE72EFED7E76AE72E68
:0A423000FED7242EF7D7000012007D
:06423A00000EF36E00EE21
:1042400000F0080E01D81200EA6002D0EE6AFCD736
:0A425000F350E9601200EE6AFCD79B
:06425A0013EE00F023EE5C
:1042600000F0F86A019C65EC20F049EC21F07CEC50
:064270001EF0FBD7120056
:0A427600056A080EE76ED8900936BD
:1042800005360E50055C02E3056E092AE72EF7D7C6
:0242900012001A
:02429200120018
:0C429400DF0F0FDF004C41455345006C6C
:1042A00034337333323031340031302E35302E31E7
:1042B000312E313935000000000000000000000000
:0642C000000000000000F8
:00000001FF
