:041000000CEF08F0F9
:10100800FACF06F0FBCF07F0E9CF08F019ED32F080
:0410180089EF2CF040
:10584200DF0F0FDFE8CF14F0ACA2FED74B501424C9
:10585200AD6E1200E8CF14F04B501424C16E4B50C1
:10586200070FC06E1200E8CF14F0FA0E00F0E82E17
:10587200FDD7142EFAD71200E8CF14F014C0A9FFF6
:10588200A694A69EA69CA680A8501200F20E4416CC
:10589200ABAC03D04490ABB04480ABB44484ABB265
:1058A2004486AECF01F001501200E8CF16F0ACA250
:1058B200FED7B8A603D0146A142A01D0146A16C0FF
:1058C20015F0142A02D0D8901532142EFCD7155098
:1058D2004B24AD6E120014501602F3CF18F0F4CF21
:1058E20019F014501702F3CFF4FFF36AF35018269D
:1058F200F450192215501602F3CFF4FFF36AF35055
:105902001826F450192218C014F019C015F012000C
:1059120000EE60F0400EEE6AE806FDE100EE36F0C1
:10592200130EEE6AE806FDE1420EF66E580EF76EB1
:10593200000EF86E00EE49F010EE04F00900F5CF0B
:10594200EEFFE550E150FAE1000EF86E0001DAEFE9
:105952002EF026502510D8B41AD0276E010E286ECC
:10596200275004D0D89025362636282A26AEFAD7D4
:105972002550235C26502458D8A004D02550235EFD
:105982002650245AD89026322532282EF1D723C009
:1059920023F024C024F012004B50FD0FA96E4B508F
:1059A200A9240B0BA66EA866FED7000E1D6E000E74
:1059B2001C6E05D0010E34EC2CF01C4A1D2A1AC0B4
:1059C20014F01BC015F0000E176E0C0E166E6CEC68
:1059D2002CF014501C5C15501D58D8B01200EAD798
:1059E200FD0EA96EA9500B0BA66EA866FED749C084
:1059F2001BF04AC01CF0000E176E7E0E166EA9CF69
:105A020014F0156A3AEC2EF0143A153AF00E151607
:105A120014500F0B1512F00E141614C01DF015C001
:105A22001EF01BEC2DF01B504C6E4C503DEC2CF03C
:105A32004B6E1200000E216E000E206E1E501D10C5
:105A4200D8B41ED01F6E010E226E1F5004D0D89003
:105A52001D361E36222A1EAEFAD7D890203621369F
:105A62001D501B5C1E501C58D8A005D01D501B5E3B
:105A72001E501C5A2080D8901E321D32222EEDD785
:105A820020C01BF021C01CF01200196E000E456EE2
:105A9200195013D04550010D17C019F018C01AF053
:105AA200F3501926F4501A2219C0F6FF1AC0F7FF54
:105AB2000800F55056EC2CF0452A4550010D17C050
:105AC20019F018C01AF0F3501926F4501A2219C00E
:105AD200F6FF1AC0F7FF0800F5500009D8B412000B
:105AE200D9D7948E949C240EAC6E900EAB6E080E99
:105AF200B86E000E146E1B0E156EB70E166E000EEB
:105B0200176E22C018F023C019F024C01AF025C065
:105B12001BF0B1EC2DF014C026F015C027F016C012
:105B220028F017C029F04B5026242A6E000E272099
:105B32002B6E000E28202C6E000E29202D6EFF0EDB
:105B42002A242E6EFF0E2B202F6EFF0E2C20306E7D
:105B5200FF0E2D20316E2FC0B0FF2EC0AFFF1200FE
:105B6200000E1D6E000E1E6E000E1F6E000E206EC9
:105B72001B50181019101A10D8B42CD01C6E010E1C
:105B8200216E1C5006D0D890183619361A361B369C
:105B9200212A1BAEF8D7D8901D361E361F36203666
:105BA2001850145C195015581A5016581B50175893
:105BB200D8A009D01850145E1950155A1A50165A06
:105BC2001B50175A1D80D8901B321A3219321832C4
:105BD200212EE1D71DC014F01EC015F01FC016F013
:105BE20020C017F01200E8CF20F015D0010E11D01E
:105BF200050E0FD0090E0DD00D0E0BD0110E09D0CF
:105C0200210E07D0250E05D0290E03D02D0E01D06E
:105C1200310EC26E1FD02050000AD8B4E7D7010A55
:105C2200D8B4E6D7030AD8B4E5D7010AD8B4E4D782
:105C3200070AD8B4E3D70C0AD8B4E2D7010AD8B419
:105C4200E1D7030AD8B4E0D7010AD8B4DFD7070AEC
:105C5200D8B4DED7000E1B6E0A0E1A6ECDEC2CF0F5
:105C6200C08EC282C2B2FED7C3CF1EF0C4CF1FF015
:105C72001200186E000E1A6E18501550800AF36E3C
:105C8200800EF35C000ED8B4145CD8B008D0146C4B
:105C9200151ED8B0152A186E010E1A6E185017501C
:105CA200800AF36E800EF35C000ED8B4165CD8B096
:105CB20004D0166C171ED8B0172A17501610D8B475
:105CC2001AD0186E010E196E185004D0D8901636DC
:105CD2001736192A17AEFAD71650145C17501558F2
:105CE200D8A004D01650145E1750155AD890173207
:105CF2001632192EF1D71A50D8B404D0146C151ECE
:105D0200D8B0152A14C014F015C015F01200D08EA8
:105D1200F28E1AD0F28AD58E4BD09D80CD8048D09B
:105D22009D82CA8445D0A082B18042D0F288F19C83
:105D32003FD0F086F19A3CD0F088F19839D09D8C12
:105D420037D09D8A9F8A34D014C016F015C017F040
:105D520017509D0AD8B40AD03D0AD8B415D0500ABB
:105D6200D8B417D0020AD8B41CD022D01650010AD7
:105D7200D8B4D3D7030AD8B4D3D7220AD8B4E1D738
:105D8200600AD8B4DCD714D01650020AD8B4CBD7E4
:105D92000FD01650080AD8B4CCD7180AD8B4CCD72A
:105DA20007D01650100AD8B4C1D7300AD8B4B2D727
:105DB2001200F1EC2CF09D0E156E200E146E88EC84
:105DC2002EF0800E226E250E236E000E246E000E23
:105DD200256E72EC2DF00E0E2BEC2CF0FBEC32F05B
:105DE2003C043D10D8A4FCD7000E3D6E000E3C6E64
:105DF200000EF4EC2DF01EC036F01FC037F0010E7D
:105E02001B6EF40E1A6ECDEC2CF07F0E186E390E4E
:105E1200176E46EC2DF0000E3F6E000E3E6E20D047
:105E2200690E3E24F66E7E0E3F20F76E0800F5CF17
:105E320032F04B50336E346A400E3326000E342259
:105E4200050E356ED89034323332352EFBD73350AF
:105E52003202F3CF48F0485056EC2CF03E4A3F2A2B
:105E6200690E3E24F66E7E0E3F20F76E0800F55056
:105E72000009D8A4D5D77F0E186EED0E176E46EC2A
:105E82002DF036C029F037C02AF05BEC30F07E0EE0
:105E9200186E760E176E46EC2DF0010E1B6EF40E88
:105EA2001A6ECDEC2CF09CD73CD0929080707ED0B4
:105EB200929280727BD09294807478D092968076FF
:105EC20075D09298807872D0929A807A6FD093909F
:105ED20081706CD09392817269D09394817466D0F0
:105EE2009396817663D09398817860D0939A817AE1
:105EF2005DD0939C817C5AD0939E817E57D09490A2
:105F0200827054D09492827251D0949482744ED002
:105F1200949C827C4BD0949E827E48D0959E837EB8
:105F220045D001C003F002C004F004507C0AD8A49A
:105F32003DD00350000AD8B4B8D7010AD8B4B8D7B4
:105F4200030AD8B4B8D7010AD8B4B8D7070AD8B464
:105F5200B8D7010AD8B4B8D70D0AD8B4B8D7010A4D
:105F6200D8B4B8D7030AD8B4B8D7010AD8B4B8D7C6
:105F7200070AD8B4B8D7010AD8B4B8D7030AD8B434
:105F8200B8D7010AD8B4B8D71F0AD8B4B8D7010A0B
:105F9200D8B4B8D7030AD8B4B8D7040AD8B4B8D793
:105FA200010AD8B4B8D7080AD8B4B8D712003CD07E
:105FB200929080707ED0929280727BD09294807404
:105FC20078D09296807675D09298807872D0929A94
:105FD200807A6FD0939081706CD09392817269D0E5
:105FE2009394817466D09396817663D093988178E6
:105FF20060D0939A817A5DD0939C817C5AD0939E93
:10600200817E57D09490827054D09492827251D0F3
:10601200949482744ED0949C827C4BD0949E827EC7
:1060220048D0959E837E45D014C016F015C017F057
:1060320017507C0AD8A43DD01650000AD8B4B8D75D
:10604200010AD8B4B8D7030AD8B4B8D7010AD8B469
:10605200B8D7070AD8B4B8D7010AD8B4B8D70D0A46
:10606200D8B4B8D7010AD8B4B8D7030AD8B4B8D7C5
:10607200010AD8B4B8D7070AD8B4B8D7010AD8B435
:10608200B8D7030AD8B4B8D7010AD8B4B8D71F0A08
:10609200D8B4B8D7010AD8B4B8D7030AD8B4B8D795
:1060A200040AD8B4B8D7010AD8B4B8D7080AD8B401
:1060B200B8D71200100E295C270E2A58D8A019D082
:1060C200270E1E6E100E1D6E29C01BF02AC01CF07A
:1060D2001BEC2DF01BC023F01CC024F0000E266E1A
:1060E2000A0E256EAAEC2CF023504B24300F23EC21
:1060F2002CF0E80E295C030E2A58D8A018D0030E03
:106102001E6EE80E1D6E29C01BF02AC01CF01BEC8F
:106112002DF01BC023F01CC024F0000E266E0A0EC8
:10612200256EAAEC2CF02350300F23EC2CF0640ED9
:10613200295C000E2A58D8A019D0000E1E6E640EDB
:106142001D6E29C01BF02AC01CF01BEC2DF01BC0D9
:1061520023F01CC024F0000E266E0A0E256EAAEC57
:106162002CF023504B24300F23EC2CF00A0E295C28
:10617200000E2A58D8A019D0000E1E6E0A0E1D6EEF
:1061820029C01BF02AC01CF01BEC2DF01BC023F011
:106192001CC024F0000E266E0A0E256EAAEC2CF00E
:1061A20023504B24300F23EC2CF029C023F02AC0BB
:1061B20024F0000E266E0A0E256EAAEC2CF0235057
:1061C2004B24300F23EC2CF0120045D092908080AB
:1061D20093D09292808290D0929480848DD0929625
:1061E20080868AD09298808887D0929A808A84D03A
:1061F200000E926E896880D0939081807DD09392B8
:1062020081827AD09394818477D09396818674D058
:106212009398818871D0939A818A6ED0939C818C55
:106222006BD0939E818E68D0000E936E8A6864D084
:106232009490828061D0949282825ED0949482847F
:106242005BD0949C828C58D0949E828E55D0000E46
:10625200946E8B6851D001C003F002C004F0045068
:106262000F0AD8B404D0730AD8B40CD045D0035066
:10627200800AD8B4BDD7010AD8B4D6D7030AD8B495
:10628200E6D73AD00350000AD8B4A0D7010AD8B44E
:10629200A0D7030AD8B4A0D7010AD8B4A0D7070A56
:1062A200D8B4A0D7010AD8B4A0D70D0AD8B4A4D7BD
:1062B200010AD8B4A4D7030AD8B4A4D7010AD8B41F
:1062C200A4D7070AD8B4A4D7010AD8B4A4D7030A1A
:1062D200D8B4A4D7010AD8B4A4D71F0AD8B4A8D76F
:1062E200010AD8B4A8D7030AD8B4A8D7040AD8B4E4
:1062F200A8D7010AD8B4A8D7120048D092908090AB
:1063020096D09292809293D09294809490D09296CA
:1063120080968DD0929880988AD0929A809A87D0CF
:10632200000E926E000E896E82D0939081907FD083
:10633200939281927CD09394819479D09396819612
:1063420076D09398819873D0939A819A70D0939CC7
:10635200819C6DD0939E819E6AD0000E936E000E3A
:106362008A6E65D09490829062D0949282925FD02D
:10637200949482945CD0949C829C59D0949E829EE8
:1063820056D0000E946E000E8B6E51D001C003F0F9
:1063920002C004F004500F0AD8B404D0730AD8B46F
:1063A2000CD045D00350800AD8B4BAD7010AD8B469
:1063B200D4D7030AD8B4E5D73AD00350000AD8B4E8
:1063C2009DD7010AD8B49DD7030AD8B49DD7010A34
:1063D200D8B49DD7070AD8B49DD7010AD8B49DD79F
:1063E2000D0AD8B4A2D7010AD8B4A2D7030AD8B4E6
:1063F200A2D7010AD8B4A2D7070AD8B4A2D7010AF1
:10640200D8B4A2D7030AD8B4A2D7010AD8B4A2D763
:106412001F0AD8B4A7D7010AD8B4A7D7030AD8B499
:10642200A7D7040AD8B4A7D7010AD8B4A7D71200AD
:106432000600EACF09F0E1CF0AF0E2CF0BF0D9CFA4
:106442000CF0DACF0DF0F3CF0EF0F4CF0FF0F6CF61
:1064520010F0F7CF11F0F8CF12F0F5CF13F09EAA9B
:10646200ACD09E9A4750010D0001600EF324D96E04
:106472000001000EF420DA6E47EC2CF0DF6E47C00C
:1064820046F015D0000E3B6E010E3A6E2DD0000E76
:10649200396E010E386E28D0056E000E476E05501B
:1064A200056E590E00010001606F05501DD0475066
:1064B200010D0001600EF324D96E0001000EF420DC
:1064C200DA6EDF502A0AD8B4E2D76B0AD8B4DFD723
:1064D200020AD8B4DCD70A0AD8B4D4D71A0AD8B474
:1064E200D6D70A0AD8B4D8D7000100016051590A98
:1064F200D8A431D04704D8B421D02DD07C0E026E5E
:106502000F0E016EE6EC30F014D07C0E026E0F0E10
:10651200016E7EEC31F01FD07C0E026E0F0E016E0A
:10652200E6EC30F018D07C0E026E0F0E016E55ECC8
:106532002FF0000E3D6E010E3C6E0DD0AE50440A9F
:10654200D8B4E3D7080AD8B4D9D71C0AD8B4E4D748
:10655200040AD8B4E8D70001000161514F0AD8A457
:106562000CD00001000162514E0AD8A406D07C0E64
:10657200026E0F0E016EE6EC30F000010001615177
:106582004F0AD8A412D0000100016251460AD8A4D1
:106592000CD0000100016351460AD8A406D07C0E3B
:1065A200026E0F0E016E7EEC31F0472A3F0E4764F9
:1065B20004D0056E000E476E055013C0F5FF12C0E1
:1065C200F8FF11C0F7FF10C0F6FF0FC0F4FF0EC0B6
:1065D200F3FF0DC0DAFF0CC0D9FF0BC0E2FF0AC007
:1065E200E1FF09C0EAFF08C0E9FF07C0FBFF06C0E0
:1065F200FAFF11001E6E110E1F6E1E50020EB06EBB
:10660200700EAF6E070E1B6ED00E1A6ECDEC2CF014
:106612001F50380F56EC2CF0480E56EC2CF0480E5A
:1066220056EC2CF07C0E156E0F0E146ED8EC2FF07B
:10663200010E1B6EF40E1A6ECDEC2CF07C0E156E54
:106642000F0E146ED8EC2FF01AD0040EB06EE10EBD
:10665200AF6E0F0E1B6EA00E1A6ECDEC2CF01F50FB
:10666200380F56EC2CF0480E56EC2CF0480E56EC37
:106672002CF07C0E156E0F0E146ED8EC2FF03950E4
:106682003810D8B4E2D7000E396E000E386E1F06ED
:106692001F50BD0F56EC2CF0C20E56EC2CF0C60E5D
:1066A20056EC2CF0E80E56EC2CF0DE0E56EC2CF0EC
:1066B200E40E56EC2CF0F20E56EC2CF0400E56EC9A
:1066C2002CF0A40E56EC2CF01A0E56EC2CF0030E05
:1066D2001B6EE80E1A6ECDEC2CF07C0E156E0F0EB2
:1066E200146ED8EC2FF02BD0070E1B6ED00E1A6E44
:1066F200CDEC2CF01F50BD0F56EC2CF0C20E56EC18
:106702002CF0C60E56EC2CF0E80E56EC2CF0DE0EF9
:1067120056EC2CF0E40E56EC2CF0F20E56EC2CF06B
:10672200400E56EC2CF0A40E56EC2CF01A0E56EC41
:106732002CF07C0E156E0F0E146ED8EC2FF0395023
:106742003810D8B4D1D7000E396E000E386E1F063D
:106752001F50D80F56EC2CF0CA0E56EC2CF0E80E57
:1067620056EC2CF0400E56EC2CF0D20E56EC2CF0DF
:10677200400E56EC2CF0C20E56EC2CF0200E23EC00
:106782002CF05B0EF66E7E0EF76E0800F55023ECD1
:106792002CF05C0EF66E7E0EF76E0800F55023ECC0
:1067A2002CF05D0EF66E7E0EF76E0800F55023ECAF
:1067B2002CF05E0EF66E7E0EF76E0800F55023EC9E
:1067C2002CF05F0EF66E7E0EF76E0800F55023EC8D
:1067D2002CF0600EF66E7E0EF76E0800F55023EC7C
:1067E2002CF0610EF66E7E0EF76E0800F55023EC6B
:1067F2002CF0620EF66E7E0EF76E0800F55023EC5A
:106802002CF0630EF66E7E0EF76E0800F55023EC48
:106812002CF0640EF66E7E0EF76E0800F55023EC37
:106822002CF0650EF66E7E0EF76E0800F55023EC26
:106832002CF0660EF66E7E0EF76E0800F55023EC15
:106842002CF0670EF66E7E0EF76E0800F55023EC04
:106852002CF0680EF66E7E0EF76E0800F55023ECF3
:106862002CF01A0E56EC2CF0030E1B6EE80E1A6E6C
:10687200CDEC2CF07C0E156E0F0E146ED8EC2FF0B2
:1068820098D0070E1B6ED00E1A6ECDEC2CF01F5056
:10689200D80F56EC2CF0CA0E56EC2CF0E80E56EC43
:1068A2002CF0400E56EC2CF0D20E56EC2CF0400E92
:1068B20056EC2CF0C20E56EC2CF0200E23EC2CF0F1
:1068C2005B0EF66E7E0EF76E0800F55023EC2CF090
:1068D2005C0EF66E7E0EF76E0800F55023EC2CF07F
:1068E2005D0EF66E7E0EF76E0800F55023EC2CF06E
:1068F2005E0EF66E7E0EF76E0800F55023EC2CF05D
:106902005F0EF66E7E0EF76E0800F55023EC2CF04B
:10691200600EF66E7E0EF76E0800F55023EC2CF03A
:10692200610EF66E7E0EF76E0800F55023EC2CF029
:10693200620EF66E7E0EF76E0800F55023EC2CF018
:10694200630EF66E7E0EF76E0800F55023EC2CF007
:10695200640EF66E7E0EF76E0800F55023EC2CF0F6
:10696200650EF66E7E0EF76E0800F55023EC2CF0E5
:10697200660EF66E7E0EF76E0800F55023EC2CF0D4
:10698200670EF66E7E0EF76E0800F55023EC2CF0C3
:10699200680EF66E7E0EF76E0800F55023EC2CF0B2
:1069A2001A0E56EC2CF07C0E156E0F0E146ED8ECEF
:1069B2002FF039503810D8B464D7000E396E000E5B
:1069C200386E1F061F50D90F56EC2CF0CA0E56EC2B
:1069D2002CF0E80E56EC2CF0400E56EC2CF0D20EB9
:1069E20056EC2CF0400E56EC2CF0CE0E56EC2CF061
:1069F200400E56EC2CF05B0EF66E7E0EF76E080023
:106A0200F55023EC2CF05C0EF66E7E0EF76E08004D
:106A1200F55023EC2CF05D0EF66E7E0EF76E08003C
:106A2200F55023EC2CF05E0EF66E7E0EF76E08002B
:106A3200F55023EC2CF05F0EF66E7E0EF76E08001A
:106A4200F55023EC2CF0600EF66E7E0EF76E080009
:106A5200F55023EC2CF0610EF66E7E0EF76E0800F8
:106A6200F55023EC2CF0620EF66E7E0EF76E0800E7
:106A7200F55023EC2CF0630EF66E7E0EF76E0800D6
:106A8200F55023EC2CF0630EF66E7E0EF76E0800C6
:106A9200F5502E0AD8A409D0640EF66E7E0EF76E5B
:106AA2000800F55023EC2CF060D0640EF66E7E0EDA
:106AB200F76E0800F5502E0AD8A411D0640EF66EB7
:106AC2007E0EF76E0800F55023EC2CF0650EF66E84
:106AD2007E0EF76E0800F55023EC2CF046D0650EC2
:106AE200F66E7E0EF76E0800F5502E0AD8A419D065
:106AF200640EF66E7E0EF76E0800F55023EC2CF055
:106B0200650EF66E7E0EF76E0800F55023EC2CF043
:106B1200660EF66E7E0EF76E0800F55023EC2CF032
:106B220024D0660EF66E7E0EF76E0800F5502E0A21
:106B3200D8A41BD0640EF66E7E0EF76E0800F550D8
:106B420023EC2CF0650EF66E7E0EF76E0800F55003
:106B520023EC2CF0660EF66E7E0EF76E0800F550F2
:106B620023EC2CF0310E23EC2CF01A0E56EC2CF008
:106B7200030E1B6EE80E1A6ECDEC2CF07C0E156E19
:106B82000F0E146ED8EC2FF0E2D0070E1B6ED00E53
:106B92001A6ECDEC2CF01F50D90F56EC2CF0CA0E09
:106BA20056EC2CF0E80E56EC2CF0400E56EC2CF085
:106BB200D20E56EC2CF0400E56EC2CF0CE0E56ECCB
:106BC2002CF0400E56EC2CF05B0EF66E7E0EF76E3D
:106BD2000800F55023EC2CF05C0EF66E7E0EF76E7C
:106BE2000800F55023EC2CF05D0EF66E7E0EF76E6B
:106BF2000800F55023EC2CF05E0EF66E7E0EF76E5A
:106C02000800F55023EC2CF05F0EF66E7E0EF76E48
:106C12000800F55023EC2CF0600EF66E7E0EF76E37
:106C22000800F55023EC2CF0610EF66E7E0EF76E26
:106C32000800F55023EC2CF0620EF66E7E0EF76E15
:106C42000800F55023EC2CF0630EF66E7E0EF76E04
:106C52000800F55023EC2CF0630EF66E7E0EF76EF4
:106C62000800F5502E0AD8A409D0640EF66E7E0EE6
:106C7200F76E0800F55023EC2CF060D0640EF66E2F
:106C82007E0EF76E0800F5502E0AD8A411D0640EBD
:106C9200F66E7E0EF76E0800F55023EC2CF0650EB2
:106CA200F66E7E0EF76E0800F55023EC2CF046D0FF
:106CB200650EF66E7E0EF76E0800F5502E0AD8A409
:106CC20019D0640EF66E7E0EF76E0800F55023ECB6
:106CD2002CF0650EF66E7E0EF76E0800F55023EC72
:106CE2002CF0660EF66E7E0EF76E0800F55023EC61
:106CF2002CF024D0660EF66E7E0EF76E0800F5506C
:106D02002E0AD8A41BD0640EF66E7E0EF76E080013
:106D1200F55023EC2CF0650EF66E7E0EF76E080031
:106D2200F55023EC2CF0660EF66E7E0EF76E080020
:106D3200F55023EC2CF0310E23EC2CF01A0E56EC0D
:106D42002CF07C0E156E0F0E146ED8EC2FF039500D
:106D52003810D8B41AD7000E396E000E386E1F06DE
:106D62001F50DA0F56EC2CF0CA0E56EC2CF0E80E3F
:106D720056EC2CF0400E56EC2CF0D20E56EC2CF0C9
:106D8200400E56EC2CF0C80E56EC2CF0400E56EC91
:106D92002CF0600E56EC2CF01A0E56EC2CF0010E74
:106DA2001B6EF40E1A6ECDEC2CF07C0E156E0F0ECF
:106DB200146ED8EC2FF02BD0030E1B6EE80E1A6E59
:106DC200CDEC2CF01F50DA0F56EC2CF0CA0E56EC1C
:106DD2002CF0E80E56EC2CF0400E56EC2CF0D20EB5
:106DE20056EC2CF0400E56EC2CF0C80E56EC2CF063
:106DF200400E56EC2CF0600E56EC2CF01A0E56ECAF
:106E02002CF07C0E156E0F0E146ED8EC2FF039504C
:106E12003810D8B4D1D7000E396E000E386E1F0666
:106E22001F50DB0F56EC2CF0CA0E56EC2CF0E80E7D
:106E320056EC2CF0400E56EC2CF0EA0E56EC2CF0F0
:106E4200400E56EC2CF0C40E56EC2CF0400E56ECD4
:106E52002CF0620E56EC2CF0720E56EC2CF0640EF6
:106E620056EC2CF0600E56EC2CF0600E56EC2CF02A
:106E72001A0E56EC2CF07C0E156E0F0E146ED8EC1A
:106E82002FF0030E1B6EE80E1A6ECDEC2CF07C0E6A
:106E9200156E0F0E146ED8EC2FF01F50DB0F56EC50
:106EA2002CF0CA0E56EC2CF0E80E56EC2CF0400EEC
:106EB20056EC2CF0D20E56EC2CF0E00E56EC2CF0E8
:106EC200400E56EC2CF0E00E56EC2CF0E40E56EC94
:106ED2002CF0DE0E56EC2CF0E80E56EC2CF0DE0E0A
:106EE20056EC2CF0400E56EC2CF0620E56EC2CF0C8
:106EF200700E56EC2CF01A0E56EC2CF0030E1B6E94
:106F0200E80E1A6ECDEC2CF07C0E156E0F0E146E80
:106F1200D8EC2FF01F50DB0F56EC2CF0CA0E56ECBB
:106F22002CF0E80E56EC2CF0400E56EC2CF0DE0E57
:106F320056EC2CF0400E56EC2CF0C80E56EC2CF011
:106F4200400E56EC2CF0A60E56EC2CF0C20E56EC6F
:106F52002CF0DC0E56EC2CF0AA0E56EC2CF0A60E01
:106F620056EC2CF0840E56EC2CF05A0E56EC2CF00B
:106F7200CC0E56EC2CF0D80E56EC2CF0F20E56EC51
:106F82002CF01A0E56EC2CF0010E1B6EF40E1A6E3B
:106F9200CDEC2CF07C0E156E0F0E146ED8EC2FF08B
:106FA2001F50DB0F56EC2CF0C20E56EC2CF0EC0E00
:106FB20056EC2CF0CA0E56EC2CF01A0E56EC2CF0B5
:106FC200030E1B6EE80E1A6ECDEC2CF07C0E156EC5
:106FD2000F0E146ED8EC2FF022D0070E1B6ED00EBF
:106FE2001A6ECDEC2CF01F50DB0F56EC2CF0C20EBB
:106FF20056EC2CF0EC0E56EC2CF0CA0E56EC2CF0A3
:107002001A0E56EC2CF0030E1B6EE80E1A6ECDEC27
:107012002CF07C0E156E0F0E146ED8EC2FF039503A
:107022003810D8B4DAD7000E396E000E386E1F064B
:107032001F50DA0F56EC2CF0CA0E56EC2CF0C40E90
:1070420056EC2CF0DE0E56EC2CF0DE0E56EC2CF04C
:10705200E80E56EC2CF01A0E56EC2CF0030E1B6EBA
:10706200E80E1A6ECDEC2CF07C0E156E0F0E146E1F
:10707200D8EC2FF00CD00F0E1B6EA00E1A6ECDECBA
:107082002CF07C0E156E0F0E146ED8EC2FF03950CA
:107092003810D8B4F0D71F50DA0F56EC2CF0CA0EC5
:1070A20056EC2CF0C40E56EC2CF0DE0E56EC2CF006
:1070B200DE0E56EC2CF0E80E56EC2CF01A0E56ECC6
:1070C2002CF0000E396E000E386E1F06020EB06EE6
:1070D200700EAF6E000E1B6E640E1A6ECDEC2CF0AD
:1070E2001F503F0F56EC2CF0480E56EC2CF0480E79
:1070F20056EC2CF07C0E156E0F0E146ED8EC2FF0A1
:10710200010E1B6EF40E1A6ECDEC2CF07C0E156E79
:107112000F0E146ED8EC2FF01CD00F0E1B6EA00EAB
:107122001A6ECDEC2CF01F503F0F56EC2CF0480E8F
:1071320056EC2CF0480E56EC2CF07C0E156E0F0E11
:10714200146ED8EC2FF0010E1B6EF40E1A6ECDECFD
:107152002CF039503810D8B4E0D7000E396E000E3A
:10716200386E1F061F50DE0F56EC2CF0CA0E56EC7E
:107172002CF0E80E56EC2CF0400E56EC2CF0EE0EF5
:1071820056EC2CF0400E56EC2CF0E60E56EC2CF0A1
:10719200400E56EC2CF0690EF66E7E0EF76E08006D
:1071A200F55023EC2CF06A0EF66E7E0EF76E080098
:1071B200F55023EC2CF06B0EF66E7E0EF76E080087
:1071C200F55023EC2CF06C0EF66E7E0EF76E080076
:1071D200F55023EC2CF06D0EF66E7E0EF76E080065
:1071E200F55023EC2CF06E0EF66E7E0EF76E080054
:1071F200F55023EC2CF06F0EF66E7E0EF76E080043
:10720200F55023EC2CF0700EF66E7E0EF76E080031
:10721200F55023EC2CF0710EF66E7E0EF76E080020
:10722200F55023EC2CF0720EF66E7E0EF76E08000F
:10723200F55023EC2CF0730EF66E7E0EF76E0800FE
:10724200F55023EC2CF0740EF66E7E0EF76E0800ED
:10725200F55023EC2CF0750EF66E7E0EF76E0800DC
:10726200F55023EC2CF0760EF66E7E0EF76E0800CB
:10727200F55023EC2CF0770EF66E7E0EF76E0800BA
:10728200F55023EC2CF0780EF66E7E0EF76E0800A9
:10729200F55023EC2CF0790EF66E7E0EF76E080098
:1072A200F55023EC2CF01A0E56EC2CF0010E1B6E4E
:1072B200F40E1A6ECDEC2CF07C0E156E0F0E146EC1
:1072C200D8EC2FF0B6D0070E1B6ED00E1A6ECDEC96
:1072D2002CF01F50DE0F56EC2CF0CA0E56EC2CF0A0
:1072E200E80E56EC2CF0400E56EC2CF0EE0E56EC5E
:1072F2002CF0400E56EC2CF0E60E56EC2CF0400E24
:1073020056EC2CF0690EF66E7E0EF76E0800F55004
:1073120023EC2CF06A0EF66E7E0EF76E0800F55026
:1073220023EC2CF06B0EF66E7E0EF76E0800F55015
:1073320023EC2CF06C0EF66E7E0EF76E0800F55004
:1073420023EC2CF06D0EF66E7E0EF76E0800F550F3
:1073520023EC2CF06E0EF66E7E0EF76E0800F550E2
:1073620023EC2CF06F0EF66E7E0EF76E0800F550D1
:1073720023EC2CF0700EF66E7E0EF76E0800F550C0
:1073820023EC2CF0710EF66E7E0EF76E0800F550AF
:1073920023EC2CF0720EF66E7E0EF76E0800F5509E
:1073A20023EC2CF0730EF66E7E0EF76E0800F5508D
:1073B20023EC2CF0740EF66E7E0EF76E0800F5507C
:1073C20023EC2CF0750EF66E7E0EF76E0800F5506B
:1073D20023EC2CF0760EF66E7E0EF76E0800F5505A
:1073E20023EC2CF0770EF66E7E0EF76E0800F55049
:1073F20023EC2CF0780EF66E7E0EF76E0800F55038
:1074020023EC2CF0790EF66E7E0EF76E0800F55026
:1074120023EC2CF01A0E56EC2CF0010E1B6EF40E1F
:107422001A6ECDEC2CF07C0E156E0F0E146ED8EC8D
:107432002FF039503810D8B446D7000E396E000EEE
:10744200386E1F061F50DF0F56EC2CF0CA0E56EC9A
:107452002CF0E80E56EC2CF0400E56EC2CF0EE0E12
:1074620056EC2CF0400E56EC2CF0E00E56EC2CF0C4
:10747200400E56EC2CF0700EF66E7E0EF76E080083
:10748200F55023EC2CF0710EF66E7E0EF76E0800AE
:10749200F55023EC2CF0720EF66E7E0EF76E08009D
:1074A200F55023EC2CF0730EF66E7E0EF76E08008C
:1074B200F55023EC2CF0740EF66E7E0EF76E08007B
:1074C200F55023EC2CF0750EF66E7E0EF76E08006A
:1074D200F55023EC2CF0760EF66E7E0EF76E080059
:1074E200F55023EC2CF0770EF66E7E0EF76E080048
:1074F200F55023EC2CF0780EF66E7E0EF76E080037
:10750200F55023EC2CF0790EF66E7E0EF76E080025
:10751200F55023EC2CF07A0EF66E7E0EF76E080014
:10752200F55023EC2CF07B0EF66E7E0EF76E080003
:10753200F55023EC2CF07C0EF66E7E0EF76E0800F2
:10754200F55023EC2CF07D0EF66E7E0EF76E0800E1
:10755200F55023EC2CF07E0EF66E7E0EF76E0800D0
:10756200F55023EC2CF07F0EF66E7E0EF76E0800BF
:10757200F55023EC2CF0800EF66E7E0EF76E0800AE
:10758200F55023EC2CF01A0E56EC2CF0010E1B6E6B
:10759200F40E1A6ECDEC2CF07C0E156E0F0E146EDE
:1075A200D8EC2FF0B6D0070E1B6ED00E1A6ECDECB3
:1075B2002CF01F50DF0F56EC2CF0CA0E56EC2CF0BC
:1075C200E80E56EC2CF0400E56EC2CF0EE0E56EC7B
:1075D2002CF0400E56EC2CF0E00E56EC2CF0400E47
:1075E20056EC2CF0700EF66E7E0EF76E0800F5501B
:1075F20023EC2CF0710EF66E7E0EF76E0800F5503D
:1076020023EC2CF0720EF66E7E0EF76E0800F5502B
:1076120023EC2CF0730EF66E7E0EF76E0800F5501A
:1076220023EC2CF0740EF66E7E0EF76E0800F55009
:1076320023EC2CF0750EF66E7E0EF76E0800F550F8
:1076420023EC2CF0760EF66E7E0EF76E0800F550E7
:1076520023EC2CF0770EF66E7E0EF76E0800F550D6
:1076620023EC2CF0780EF66E7E0EF76E0800F550C5
:1076720023EC2CF0790EF66E7E0EF76E0800F550B4
:1076820023EC2CF07A0EF66E7E0EF76E0800F550A3
:1076920023EC2CF07B0EF66E7E0EF76E0800F55092
:1076A20023EC2CF07C0EF66E7E0EF76E0800F55081
:1076B20023EC2CF07D0EF66E7E0EF76E0800F55070
:1076C20023EC2CF07E0EF66E7E0EF76E0800F5505F
:1076D20023EC2CF07F0EF66E7E0EF76E0800F5504E
:1076E20023EC2CF0800EF66E7E0EF76E0800F5503D
:1076F20023EC2CF01A0E56EC2CF0010E1B6EF40E3D
:107702001A6ECDEC2CF07C0E156E0F0E146ED8ECAA
:107712002FF039503810D8B446D7000E396E000E0B
:10772200386E1F061F50E00F56EC2CF0CA0E56ECB6
:107732002CF0E80E56EC2CF0400E56EC2CF0C60E57
:1077420056EC2CF0DE0E56EC2CF0DA0E56EC2CF049
:10775200DA0E56EC2CF0400E56EC2CF0DE0E56EC07
:107762002CF0E00E56EC2CF0CA0E56EC2CF0DC0E8F
:1077720056EC2CF0400E56EC2CF0540E56EC2CF03D
:10778200A60E56EC2CF0C20E56EC2CF0DC0E56EC8B
:107792002CF0AA0E56EC2CF0A60E56EC2CF0840E11
:1077A20056EC2CF0540E56EC2CF01A0E56EC2CF033
:1077B200010E1B6EF40E1A6ECDEC2CF07C0E156EC3
:1077C2000F0E146ED8EC2FF052D0030E1B6EE80E83
:1077D2001A6ECDEC2CF01F50E00F56EC2CF0CA0EB6
:1077E20056EC2CF0E80E56EC2CF0400E56EC2CF039
:1077F200C60E56EC2CF0DE0E56EC2CF0DA0E56ECE1
:107802002CF0DA0E56EC2CF0400E56EC2CF0DE0E7C
:1078120056EC2CF0E00E56EC2CF0CA0E56EC2CF086
:10782200DC0E56EC2CF0400E56EC2CF0540E56ECBE
:107832002CF0A60E56EC2CF0C20E56EC2CF0DC0E00
:1078420056EC2CF0AA0E56EC2CF0A60E56EC2CF0B0
:10785200840E56EC2CF0540E56EC2CF01A0E56EC0C
:107862002CF07C0E156E0F0E146ED8EC2FF03950E2
:107872003810D8B4AAD7000E396E000E386E1F0623
:107882001F50E10F56EC2CF0CA0E56EC2CF0E80E0D
:1078920056EC2CF0400E56EC2CF0C60E56EC2CF0AA
:1078A200DE0E56EC2CF0DA0E56EC2CF0DA0E56EC1C
:1078B2002CF0400E56EC2CF0E40E56EC2CF0CA0ED6
:1078C20056EC2CF0DA0E56EC2CF0DE0E56EC2CF0C8
:1078D200E80E56EC2CF0CA0E56EC2CF0400E56EC8C
:1078E2002CF03C0E56EC2CF01A0E56EC2CF07C0EC2
:1078F200156E0F0E146ED8EC2FF0010E1B6EF40EE7
:107902001A6ECDEC2CF07C0E156E0F0E146ED8ECA8
:107912002FF058D0030E1B6EE80E1A6ECDEC2CF031
:107922001F50E10F56EC2CF0CA0E56EC2CF0E80E6C
:1079320056EC2CF0400E56EC2CF0C60E56EC2CF009
:10794200DE0E56EC2CF0DA0E56EC2CF0DA0E56EC7B
:107952002CF0400E56EC2CF0E40E56EC2CF0CA0E35
:1079620056EC2CF0DA0E56EC2CF0DE0E56EC2CF027
:10797200E80E56EC2CF0CA0E56EC2CF0400E56ECEB
:107982002CF0540E56EC2CF0A60E56EC2CF0C20E37
:1079920056EC2CF0DC0E56EC2CF0AA0E56EC2CF029
:1079A200A60E56EC2CF0840E56EC2CF0540E56EC2F
:1079B2002CF01A0E56EC2CF07C0E156E0F0E146E77
:1079C200D8EC2FF039503810D8B4A4D7000E396E45
:1079D200000E386E1F061F50E20F56EC2CF0CA0E36
:1079E20056EC2CF0E80E56EC2CF0400E56EC2CF037
:1079F200D20E56EC2CF0E00E56EC2CF0400E56EC6B
:107A02002CF0D80E56EC2CF0DE0E56EC2CF0C60EF6
:107A120056EC2CF0C20E56EC2CF0D80E56EC2CF094
:107A2200400E56EC2CF0700E56EC2CF0600E56EC1C
:107A32002CF01A0E56EC2CF0010E1B6EF40E1A6E80
:107A4200CDEC2CF07C0E156E0F0E146ED8EC2FF0D0
:107A52003DD0030E1B6EE80E1A6ECDEC2CF01F50BB
:107A6200E20F56EC2CF0CA0E56EC2CF0E80E56EC57
:107A72002CF0400E56EC2CF0D20E56EC2CF0E00E10
:107A820056EC2CF0400E56EC2CF0D80E56EC2CF0A6
:107A9200DE0E56EC2CF0C60E56EC2CF0C20E56EC56
:107AA2002CF0D80E56EC2CF0400E56EC2CF0700E4A
:107AB20056EC2CF0600E56EC2CF01A0E56EC2CF014
:107AC2007C0E156E0F0E146ED8EC2FF03950381054
:107AD200D8B4BFD7000E396E000E386E1F061F5085
:107AE200E30F56EC2CF0C20E56EC2CF0EC0E56ECDA
:107AF2002CF0CA0E56EC2CF01A0E56EC2CF0030E9B
:107B02001B6EE80E1A6ECDEC2CF07C0E156E0F0E6D
:107B1200146ED8EC2FF028D0070E1B6ED00E1A6E02
:107B2200CDEC2CF01F50E30F56EC2CF0C20E56ECAD
:107B32002CF0EC0E56EC2CF0CA0E56EC2CF01A0E71
:107B420056EC2CF0030E1B6EE80E1A6ECDEC2CF0E8
:107B52007C0E156E0F0E146ED8EC2FF07C0E156E87
:107B62000F0E146ED8EC2FF039503810D8B4D4D789
:107B7200000E396E000E386E1F061F50D20F56ECE3
:107B82002CF0DE0E56EC2CF0D20E56EC2CF0DC0E65
:107B920056EC2CF0400E56EC2CF0690EF66E7E0E72
:107BA200F76E0800F55023EC2CF06A0EF66E7E0E8E
:107BB200F76E0800F55023EC2CF06B0EF66E7E0E7D
:107BC200F76E0800F55023EC2CF06C0EF66E7E0E6C
:107BD200F76E0800F55023EC2CF06D0EF66E7E0E5B
:107BE200F76E0800F55023EC2CF06E0EF66E7E0E4A
:107BF200F76E0800F55023EC2CF06F0EF66E7E0E39
:107C0200F76E0800F55023EC2CF0700EF66E7E0E27
:107C1200F76E0800F55023EC2CF0710EF66E7E0E16
:107C2200F76E0800F55023EC2CF0720EF66E7E0E05
:107C3200F76E0800F55023EC2CF0730EF66E7E0EF4
:107C4200F76E0800F55023EC2CF0740EF66E7E0EE3
:107C5200F76E0800F55023EC2CF0750EF66E7E0ED2
:107C6200F76E0800F55023EC2CF0760EF66E7E0EC1
:107C7200F76E0800F55023EC2CF0770EF66E7E0EB0
:107C8200F76E0800F55023EC2CF0780EF66E7E0E9F
:107C9200F76E0800F55023EC2CF0790EF66E7E0E8E
:107CA200F76E0800F55023EC2CF07A0EF66E7E0E7D
:107CB200F76E0800F55023EC2CF01A0E56EC2CF05F
:107CC2007C0E156E0F0E146ED8EC2FF00F0E1B6E7D
:107CD200A00E1A6ECDEC2CF07C0E156E0F0E146EEB
:107CE200D8EC2FF0AFD00F0E1B6EA00E1A6ECDEC9B
:107CF2002CF01F50D20F56EC2CF0DE0E56EC2CF06E
:107D0200D20E56EC2CF0DC0E56EC2CF0400E56EC5B
:107D12002CF0690EF66E7E0EF76E0800F55023EC1D
:107D22002CF06A0EF66E7E0EF76E0800F55023EC0C
:107D32002CF06B0EF66E7E0EF76E0800F55023ECFB
:107D42002CF06C0EF66E7E0EF76E0800F55023ECEA
:107D52002CF06D0EF66E7E0EF76E0800F55023ECD9
:107D62002CF06E0EF66E7E0EF76E0800F55023ECC8
:107D72002CF06F0EF66E7E0EF76E0800F55023ECB7
:107D82002CF0700EF66E7E0EF76E0800F55023ECA6
:107D92002CF0710EF66E7E0EF76E0800F55023EC95
:107DA2002CF0720EF66E7E0EF76E0800F55023EC84
:107DB2002CF0730EF66E7E0EF76E0800F55023EC73
:107DC2002CF0740EF66E7E0EF76E0800F55023EC62
:107DD2002CF0750EF66E7E0EF76E0800F55023EC51
:107DE2002CF0760EF66E7E0EF76E0800F55023EC40
:107DF2002CF0770EF66E7E0EF76E0800F55023EC2F
:107E02002CF0780EF66E7E0EF76E0800F55023EC1D
:107E12002CF0790EF66E7E0EF76E0800F55023EC0C
:107E22002CF07A0EF66E7E0EF76E0800F55023ECFB
:107E32002CF01A0E56EC2CF07C0E156E0F0E146EF2
:107E4200D8EC2FF03B503A10D8B44DD7000E3B6E11
:107E5200000E3A6E1F061200003139322E313638CA
:107E62002E312E3139350053616E555342004C612B
:107E7200657365004CE6EAC4DAD2E87AA6EAC4DAA7
:107E8200D2E8447C785ED2CCE4C2DACA7C789062D2
:107E92007C94DED2DC40E8D2DCF2EAE4D85CC6DED6
:107EA200DA5EA6C2DCAAA684785E90627C78A07CA8
:107EB200785E90627C82C6C6CAE6E64078C240D04E
:107EC200E4CACC7A44D0E8E8E0E6745E5EC8DEC676
:107ED200E65CCEDEDECED8CA5CC6DEDA5EE6E0E482
:107EE200CAC2C8E6D0CACAE85EC6C6C67ED6CAF24A
:107EF2007A6082E06666649E82D0DC9ACA64C88830
:107F0200B4EEACD8A468A48E6AE6A8AE6A9CCAD8BD
:107F1200DE64A4D89CA0AC8AA264B2DAC6447C987F
:107F2200DECEE6785EC27C785EA07C785EC6CADC75
:107F3200E8CAE47C1A140090A8A8A05E625C6240C1
:107F4200646060409E961A1486DEDCE8CADCE85A59
:107F5200A8F2E0CA7440E8CAF0E85ED0E8DAD81ABB
:107F6200141A1478C6CADCE8CAE47C78D2CCE4C21B
:107F7200DACA40E6E4C67A44D0E8E8E0E6745E5E37
:107F8200C8DEC6E65CCEDEDECED8CA5CC6DEDA5E0F
:107F9200E6E0E4CAC2C8E6D0CACAE85ECCDEE4DAE9
:107FA200A4CAE6E0DEDCE6CA7ECCDEE4DAD6CAF2B9
:107FB2007AC888B4EEACD8A468A48E6AE6A8AE6A81
:107FC2009CCAD8DE64A4D89CA0AC8AA264B2DAC6E9
:107FD2006C9AA24CD2CCE24A64604CCADCE8E4F26D
:107FE2005C605CE6D2DCCED8CA7A004CCADCE8E43B
:0E7FF200F25C625CE6D2DCCED8CA7A000000F7
:020000040020DA
:08000000FFFFFFFFFFFFFFFF00
:020000040030CA
:0E00000000051F1FFF8385FF0FC00FE00F409C
:00000001FF
